{
  "_format": "hh-sol-artifact-1",
  "contractName": "BagzNFT",
  "sourceName": "contracts/BagzNFT.sol",
  "abi": [
    {
      "inputs": [],
      "stateMutability": "nonpayable",
      "type": "constructor"
    },
    {
      "anonymous": false,
      "inputs": [
        {
          "indexed": true,
          "internalType": "address",
          "name": "owner",
          "type": "address"
        },
        {
          "indexed": true,
          "internalType": "address",
          "name": "approved",
          "type": "address"
        },
        {
          "indexed": true,
          "internalType": "uint256",
          "name": "tokenId",
          "type": "uint256"
        }
      ],
      "name": "Approval",
      "type": "event"
    },
    {
      "anonymous": false,
      "inputs": [
        {
          "indexed": true,
          "internalType": "address",
          "name": "owner",
          "type": "address"
        },
        {
          "indexed": true,
          "internalType": "address",
          "name": "operator",
          "type": "address"
        },
        {
          "indexed": false,
          "internalType": "bool",
          "name": "approved",
          "type": "bool"
        }
      ],
      "name": "ApprovalForAll",
      "type": "event"
    },
    {
      "anonymous": false,
      "inputs": [
        {
          "indexed": false,
          "internalType": "address",
          "name": "sender",
          "type": "address"
        },
        {
          "indexed": false,
          "internalType": "uint256",
          "name": "tokenId",
          "type": "uint256"
        }
      ],
      "name": "NewBagzNFTMinted",
      "type": "event"
    },
    {
      "anonymous": false,
      "inputs": [
        {
          "indexed": true,
          "internalType": "address",
          "name": "from",
          "type": "address"
        },
        {
          "indexed": true,
          "internalType": "address",
          "name": "to",
          "type": "address"
        },
        {
          "indexed": true,
          "internalType": "uint256",
          "name": "tokenId",
          "type": "uint256"
        }
      ],
      "name": "Transfer",
      "type": "event"
    },
    {
      "anonymous": false,
      "inputs": [
        {
          "indexed": false,
          "internalType": "address",
          "name": "sender",
          "type": "address"
        },
        {
          "indexed": false,
          "internalType": "uint256",
          "name": "tokenId",
          "type": "uint256"
        }
      ],
      "name": "UpdatedTokenUri",
      "type": "event"
    },
    {
      "inputs": [
        {
          "internalType": "uint256",
          "name": "tokenId",
          "type": "uint256"
        },
        {
          "internalType": "string",
          "name": "name",
          "type": "string"
        },
        {
          "internalType": "uint256",
          "name": "quantity",
          "type": "uint256"
        }
      ],
      "name": "addItem",
      "outputs": [],
      "stateMutability": "nonpayable",
      "type": "function"
    },
    {
      "inputs": [
        {
          "internalType": "address",
          "name": "to",
          "type": "address"
        },
        {
          "internalType": "uint256",
          "name": "tokenId",
          "type": "uint256"
        }
      ],
      "name": "approve",
      "outputs": [],
      "stateMutability": "nonpayable",
      "type": "function"
    },
    {
      "inputs": [
        {
          "internalType": "uint256",
          "name": "",
          "type": "uint256"
        }
      ],
      "name": "bags",
      "outputs": [
        {
          "internalType": "uint256",
          "name": "maxSlot",
          "type": "uint256"
        },
        {
          "internalType": "uint256",
          "name": "nbItemTypes",
          "type": "uint256"
        }
      ],
      "stateMutability": "view",
      "type": "function"
    },
    {
      "inputs": [
        {
          "internalType": "address",
          "name": "owner",
          "type": "address"
        }
      ],
      "name": "balanceOf",
      "outputs": [
        {
          "internalType": "uint256",
          "name": "",
          "type": "uint256"
        }
      ],
      "stateMutability": "view",
      "type": "function"
    },
    {
      "inputs": [
        {
          "internalType": "uint256",
          "name": "tokenId",
          "type": "uint256"
        },
        {
          "internalType": "string",
          "name": "name",
          "type": "string"
        },
        {
          "internalType": "uint256",
          "name": "quantity",
          "type": "uint256"
        }
      ],
      "name": "extractItem",
      "outputs": [],
      "stateMutability": "nonpayable",
      "type": "function"
    },
    {
      "inputs": [
        {
          "internalType": "uint256",
          "name": "tokenId",
          "type": "uint256"
        }
      ],
      "name": "getApproved",
      "outputs": [
        {
          "internalType": "address",
          "name": "",
          "type": "address"
        }
      ],
      "stateMutability": "view",
      "type": "function"
    },
    {
      "inputs": [
        {
          "internalType": "uint256",
          "name": "tokenId",
          "type": "uint256"
        }
      ],
      "name": "getNbItemTypesInBag",
      "outputs": [
        {
          "internalType": "uint256",
          "name": "",
          "type": "uint256"
        }
      ],
      "stateMutability": "view",
      "type": "function"
    },
    {
      "inputs": [
        {
          "internalType": "address",
          "name": "owner",
          "type": "address"
        },
        {
          "internalType": "address",
          "name": "operator",
          "type": "address"
        }
      ],
      "name": "isApprovedForAll",
      "outputs": [
        {
          "internalType": "bool",
          "name": "",
          "type": "bool"
        }
      ],
      "stateMutability": "view",
      "type": "function"
    },
    {
      "inputs": [],
      "name": "mint",
      "outputs": [],
      "stateMutability": "nonpayable",
      "type": "function"
    },
    {
      "inputs": [],
      "name": "name",
      "outputs": [
        {
          "internalType": "string",
          "name": "",
          "type": "string"
        }
      ],
      "stateMutability": "view",
      "type": "function"
    },
    {
      "inputs": [
        {
          "internalType": "uint256",
          "name": "tokenId",
          "type": "uint256"
        }
      ],
      "name": "ownerOf",
      "outputs": [
        {
          "internalType": "address",
          "name": "",
          "type": "address"
        }
      ],
      "stateMutability": "view",
      "type": "function"
    },
    {
      "inputs": [
        {
          "internalType": "address",
          "name": "",
          "type": "address"
        },
        {
          "internalType": "uint256",
          "name": "",
          "type": "uint256"
        }
      ],
      "name": "owners",
      "outputs": [
        {
          "internalType": "uint256",
          "name": "",
          "type": "uint256"
        }
      ],
      "stateMutability": "view",
      "type": "function"
    },
    {
      "inputs": [
        {
          "internalType": "address",
          "name": "bItemContract",
          "type": "address"
        }
      ],
      "name": "registerBagzItemContract",
      "outputs": [],
      "stateMutability": "nonpayable",
      "type": "function"
    },
    {
      "inputs": [
        {
          "internalType": "address",
          "name": "from",
          "type": "address"
        },
        {
          "internalType": "address",
          "name": "to",
          "type": "address"
        },
        {
          "internalType": "uint256",
          "name": "tokenId",
          "type": "uint256"
        }
      ],
      "name": "safeTransferFrom",
      "outputs": [],
      "stateMutability": "nonpayable",
      "type": "function"
    },
    {
      "inputs": [
        {
          "internalType": "address",
          "name": "from",
          "type": "address"
        },
        {
          "internalType": "address",
          "name": "to",
          "type": "address"
        },
        {
          "internalType": "uint256",
          "name": "tokenId",
          "type": "uint256"
        },
        {
          "internalType": "bytes",
          "name": "_data",
          "type": "bytes"
        }
      ],
      "name": "safeTransferFrom",
      "outputs": [],
      "stateMutability": "nonpayable",
      "type": "function"
    },
    {
      "inputs": [
        {
          "internalType": "address",
          "name": "operator",
          "type": "address"
        },
        {
          "internalType": "bool",
          "name": "approved",
          "type": "bool"
        }
      ],
      "name": "setApprovalForAll",
      "outputs": [],
      "stateMutability": "nonpayable",
      "type": "function"
    },
    {
      "inputs": [
        {
          "internalType": "uint256",
          "name": "tokenId",
          "type": "uint256"
        },
        {
          "internalType": "string[]",
          "name": "listNames",
          "type": "string[]"
        }
      ],
      "name": "showBag",
      "outputs": [],
      "stateMutability": "view",
      "type": "function"
    },
    {
      "inputs": [
        {
          "internalType": "bytes4",
          "name": "interfaceId",
          "type": "bytes4"
        }
      ],
      "name": "supportsInterface",
      "outputs": [
        {
          "internalType": "bool",
          "name": "",
          "type": "bool"
        }
      ],
      "stateMutability": "view",
      "type": "function"
    },
    {
      "inputs": [],
      "name": "symbol",
      "outputs": [
        {
          "internalType": "string",
          "name": "",
          "type": "string"
        }
      ],
      "stateMutability": "view",
      "type": "function"
    },
    {
      "inputs": [
        {
          "internalType": "uint256",
          "name": "tokenId",
          "type": "uint256"
        }
      ],
      "name": "tokenURI",
      "outputs": [
        {
          "internalType": "string",
          "name": "",
          "type": "string"
        }
      ],
      "stateMutability": "view",
      "type": "function"
    },
    {
      "inputs": [
        {
          "internalType": "address",
          "name": "from",
          "type": "address"
        },
        {
          "internalType": "address",
          "name": "to",
          "type": "address"
        },
        {
          "internalType": "uint256",
          "name": "tokenId",
          "type": "uint256"
        }
      ],
      "name": "transferFrom",
      "outputs": [],
      "stateMutability": "nonpayable",
      "type": "function"
    }
  ],
  "bytecode": "0x608060405260405180608001604052806040518060400160405280600581526020017f53746f6e6500000000000000000000000000000000000000000000000000000081525081526020016040518060400160405280600581526020017f537469636b00000000000000000000000000000000000000000000000000000081525081526020016040518060400160405280600481526020017f476561720000000000000000000000000000000000000000000000000000000081525081526020016040518060400160405280600781526020017f4469616d6f6e640000000000000000000000000000000000000000000000000081525081525060079060046200010b9291906200022e565b503480156200011957600080fd5b506040518060400160405280600781526020017f4261677a4e4654000000000000000000000000000000000000000000000000008152506040518060400160405280600481526020017f4241475a0000000000000000000000000000000000000000000000000000000081525081600090805190602001906200019e92919062000295565b508060019080519060200190620001b792919062000295565b505050620001d1600a6200021860201b620013351760201c565b33600960006101000a81548173ffffffffffffffffffffffffffffffffffffffff021916908373ffffffffffffffffffffffffffffffffffffffff16021790555062000418565b6001816000016000828254019250508190555050565b82805482825590600052602060002090810192821562000282579160200282015b82811115620002815782518290805190602001906200027092919062000295565b50916020019190600101906200024f565b5b50905062000291919062000326565b5090565b828054620002a390620003b3565b90600052602060002090601f016020900481019282620002c7576000855562000313565b82601f10620002e257805160ff191683800117855562000313565b8280016001018555821562000313579182015b8281111562000312578251825591602001919060010190620002f5565b5b5090506200032291906200034e565b5090565b5b808211156200034a57600081816200034091906200036d565b5060010162000327565b5090565b5b80821115620003695760008160009055506001016200034f565b5090565b5080546200037b90620003b3565b6000825580601f106200038f5750620003b0565b601f016020900490600052602060002090810190620003af91906200034e565b5b50565b60006002820490506001821680620003cc57607f821691505b60208210811415620003e357620003e2620003e9565b5b50919050565b7f4e487b7100000000000000000000000000000000000000000000000000000000600052602260045260246000fd5b613d9280620004286000396000f3fe608060405234801561001057600080fd5b50600436106101375760003560e01c806370a08231116100b8578063b776fc151161007c578063b776fc151461034a578063b88d4fde14610366578063c24676fe14610382578063c87b56dd1461039e578063dda4df4e146103ce578063e985e9c5146103ff57610137565b806370a082311461029457806395d89b41146102c45780639b3e2787146102e2578063a22cb46514610312578063ae46f55e1461032e57610137565b80631249c58b116100ff5780631249c58b1461020657806323b872dd1461021057806342842e0e1461022c5780634e717364146102485780636352211e1461026457610137565b806301ffc9a71461013c57806306fdde031461016c578063081812fc1461018a578063095ea7b3146101ba57806312398479146101d6575b600080fd5b61015660048036038101906101519190612714565b61042f565b6040516101639190612ede565b60405180910390f35b610174610511565b6040516101819190612ef9565b60405180910390f35b6101a4600480360381019061019f9190612766565b6105a3565b6040516101b19190612e10565b60405180910390f35b6101d460048036038101906101cf91906126d8565b610628565b005b6101f060048036038101906101eb9190612766565b610740565b6040516101fd9190613139565b60405180910390f35b61020e610760565b005b61022a600480360381019061022591906125d2565b610863565b005b610246600480360381019061024191906125d2565b6108c3565b005b610262600480360381019061025d919061256d565b6108e3565b005b61027e60048036038101906102799190612766565b610981565b60405161028b9190612e10565b60405180910390f35b6102ae60048036038101906102a9919061256d565b610a33565b6040516102bb9190613139565b60405180910390f35b6102cc610aeb565b6040516102d99190612ef9565b60405180910390f35b6102fc60048036038101906102f791906126d8565b610b7d565b6040516103099190613139565b60405180910390f35b61032c6004803603810190610327919061269c565b610bae565b005b6103486004803603810190610343919061278f565b610bc4565b005b610364600480360381019061035f91906127e3565b610c95565b005b610380600480360381019061037b9190612621565b610e5e565b005b61039c600480360381019061039791906127e3565b610ec0565b005b6103b860048036038101906103b39190612766565b611020565b6040516103c59190612ef9565b60405180910390f35b6103e860048036038101906103e39190612766565b61127d565b6040516103f6929190613154565b60405180910390f35b61041960048036038101906104149190612596565b6112a1565b6040516104269190612ede565b60405180910390f35b60007f80ac58cd000000000000000000000000000000000000000000000000000000007bffffffffffffffffffffffffffffffffffffffffffffffffffffffff1916827bffffffffffffffffffffffffffffffffffffffffffffffffffffffff191614806104fa57507f5b5e139f000000000000000000000000000000000000000000000000000000007bffffffffffffffffffffffffffffffffffffffffffffffffffffffff1916827bffffffffffffffffffffffffffffffffffffffffffffffffffffffff1916145b8061050a57506105098261134b565b5b9050919050565b6060600080546105209061343e565b80601f016020809104026020016040519081016040528092919081815260200182805461054c9061343e565b80156105995780601f1061056e57610100808354040283529160200191610599565b820191906000526020600020905b81548152906001019060200180831161057c57829003601f168201915b5050505050905090565b60006105ae826113b5565b6105ed576040517f08c379a00000000000000000000000000000000000000000000000000000000081526004016105e4906130b9565b60405180910390fd5b6004600083815260200190815260200160002060009054906101000a900473ffffffffffffffffffffffffffffffffffffffff169050919050565b600061063382610981565b90508073ffffffffffffffffffffffffffffffffffffffff168373ffffffffffffffffffffffffffffffffffffffff1614156106a4576040517f08c379a000000000000000000000000000000000000000000000000000000000815260040161069b906130f9565b60405180910390fd5b8073ffffffffffffffffffffffffffffffffffffffff166106c3611421565b73ffffffffffffffffffffffffffffffffffffffff1614806106f257506106f1816106ec611421565b6112a1565b5b610731576040517f08c379a000000000000000000000000000000000000000000000000000000000815260040161072890613039565b60405180910390fd5b61073b8383611429565b505050565b6000600b6000838152602001908152602001600020600101549050919050565b600061076c600a6114e2565b905061077833826114f0565b6005600b6000838152602001908152602001600020600001819055506107b7604051806060016040528060258152602001613cf860259139823361150e565b6107c1600a611335565b600c60003373ffffffffffffffffffffffffffffffffffffffff1673ffffffffffffffffffffffffffffffffffffffff1681526020019081526020016000208190806001815401808255809150506001900390600052602060002001600090919091909150557fccbea5c6c3e8a504226479ac7fe09f8e351fcedaedac53e3f57247dee266a72e3382604051610858929190612eb5565b60405180910390a150565b61087461086e611421565b826115ad565b6108b3576040517f08c379a00000000000000000000000000000000000000000000000000000000081526004016108aa90613119565b60405180910390fd5b6108be83838361168b565b505050565b6108de83838360405180602001604052806000815250610e5e565b505050565b600960009054906101000a900473ffffffffffffffffffffffffffffffffffffffff1673ffffffffffffffffffffffffffffffffffffffff163373ffffffffffffffffffffffffffffffffffffffff161461093d57600080fd5b80600860006101000a81548173ffffffffffffffffffffffffffffffffffffffff021916908373ffffffffffffffffffffffffffffffffffffffff16021790555050565b6000806002600084815260200190815260200160002060009054906101000a900473ffffffffffffffffffffffffffffffffffffffff169050600073ffffffffffffffffffffffffffffffffffffffff168173ffffffffffffffffffffffffffffffffffffffff161415610a2a576040517f08c379a0000000000000000000000000000000000000000000000000000000008152600401610a2190613079565b60405180910390fd5b80915050919050565b60008073ffffffffffffffffffffffffffffffffffffffff168273ffffffffffffffffffffffffffffffffffffffff161415610aa4576040517f08c379a0000000000000000000000000000000000000000000000000000000008152600401610a9b90613059565b60405180910390fd5b600360008373ffffffffffffffffffffffffffffffffffffffff1673ffffffffffffffffffffffffffffffffffffffff168152602001908152602001600020549050919050565b606060018054610afa9061343e565b80601f0160208091040260200160405190810160405280929190818152602001828054610b269061343e565b8015610b735780601f10610b4857610100808354040283529160200191610b73565b820191906000526020600020905b815481529060010190602001808311610b5657829003601f168201915b5050505050905090565b600c6020528160005260406000208181548110610b9957600080fd5b90600052602060002001600091509150505481565b610bc0610bb9611421565b83836118f2565b5050565b60005b8151811015610c90576000828281518110610c0b577f4e487b7100000000000000000000000000000000000000000000000000000000600052603260045260246000fd5b60200260200101519050610c7c81610c57600b600088815260200190815260200160002060020184604051610c409190612ccb565b908152602001604051809103902060020154611a5f565b604051602001610c68929190612d41565b604051602081830303815290604052611c0c565b508080610c88906134a1565b915050610bc7565b505050565b6000600b600085815260200190815260200160002090508060020183604051610cbe9190612ccb565b908152602001604051809103902060010160009054906101000a900460ff16610de5578060000154816001015410610d2b576040517f08c379a0000000000000000000000000000000000000000000000000000000008152600401610d22906130d9565b60405180910390fd5b6001816001016000828254610d409190613273565b9250508190555060018160020184604051610d5b9190612ccb565b908152602001604051809103902060010160006101000a81548160ff021916908315150217905550828160020184604051610d969190612ccb565b90815260200160405180910390206000019080519060200190610dba9291906122e1565b5060008160020184604051610dcf9190612ccb565b9081526020016040518091039020600201819055505b818160020184604051610df89190612ccb565b90815260200160405180910390206002016000828254610e189190613273565b925050819055507fc81f50030cf0bd1be93b5873080725c40323b51c6b3e68b1bafed09641368ca23385604051610e50929190612eb5565b60405180910390a150505050565b610e6f610e69611421565b836115ad565b610eae576040517f08c379a0000000000000000000000000000000000000000000000000000000008152600401610ea590613119565b60405180910390fd5b610eba84848484611ca5565b50505050565b6000600b600085815260200190815260200160002060020183604051610ee69190612ccb565b908152602001604051809103902060020154905081811015610f3d576040517f08c379a0000000000000000000000000000000000000000000000000000000008152600401610f3490612ff9565b60405180910390fd5b81600b600086815260200190815260200160002060020184604051610f629190612ccb565b90815260200160405180910390206002016000828254610f829190613354565b92505081905550600860009054906101000a900473ffffffffffffffffffffffffffffffffffffffff1673ffffffffffffffffffffffffffffffffffffffff1663ba7aef433385856040518463ffffffff1660e01b8152600401610fe893929190612e77565b600060405180830381600087803b15801561100257600080fd5b505af1158015611016573d6000803e3d6000fd5b5050505050505050565b60606000600b60008481526020019081526020016000209050600080600780549050905060006040518060200160405280600081525090505b818310156111fb5760006007848154811061109d577f4e487b7100000000000000000000000000000000000000000000000000000000600052603260045260246000fd5b9060005260206000200180546110b29061343e565b80601f01602080910402602001604051908101604052809291908181526020018280546110de9061343e565b801561112b5780601f106111005761010080835404028352916020019161112b565b820191906000526020600020905b81548152906001019060200180831161110e57829003601f168201915b50505050509050600085600201826040516111469190612ccb565b908152602001604051809103902060020154905060008111156111e8578260008451146111a8576040518060400160405280600281526020017f2c200000000000000000000000000000000000000000000000000000000000008152506111b9565b604051806020016040528060008152505b836111c384611a5f565b6040516020016111d69493929190612ce2565b60405160208183030381529060405292505b846111f2906134a1565b94505050611059565b600061124f61120988611a5f565b611228600b60008b815260200190815260200160002060000154611a5f565b8460405160200161123b93929190612d92565b604051602081830303815290604052611d01565b9050806040516020016112629190612d70565b60405160208183030381529060405295505050505050919050565b600b6020528060005260406000206000915090508060000154908060010154905082565b6000600560008473ffffffffffffffffffffffffffffffffffffffff1673ffffffffffffffffffffffffffffffffffffffff16815260200190815260200160002060008373ffffffffffffffffffffffffffffffffffffffff1673ffffffffffffffffffffffffffffffffffffffff16815260200190815260200160002060009054906101000a900460ff16905092915050565b6001816000016000828254019250508190555050565b60007f01ffc9a7000000000000000000000000000000000000000000000000000000007bffffffffffffffffffffffffffffffffffffffffffffffffffffffff1916827bffffffffffffffffffffffffffffffffffffffffffffffffffffffff1916149050919050565b60008073ffffffffffffffffffffffffffffffffffffffff166002600084815260200190815260200160002060009054906101000a900473ffffffffffffffffffffffffffffffffffffffff1673ffffffffffffffffffffffffffffffffffffffff1614159050919050565b600033905090565b816004600083815260200190815260200160002060006101000a81548173ffffffffffffffffffffffffffffffffffffffff021916908373ffffffffffffffffffffffffffffffffffffffff160217905550808273ffffffffffffffffffffffffffffffffffffffff1661149c83610981565b73ffffffffffffffffffffffffffffffffffffffff167f8c5be1e5ebec7d5bd14f71427d1e84f3dd0314c0f7b2291e5b200ac8c7c3b92560405160405180910390a45050565b600081600001549050919050565b61150a828260405180602001604052806000815250611ebf565b5050565b6115a883838360405160240161152693929190612f1b565b6040516020818303038152906040527fe3849f79000000000000000000000000000000000000000000000000000000007bffffffffffffffffffffffffffffffffffffffffffffffffffffffff19166020820180517bffffffffffffffffffffffffffffffffffffffffffffffffffffffff8381831617835250505050611f1a565b505050565b60006115b8826113b5565b6115f7576040517f08c379a00000000000000000000000000000000000000000000000000000000081526004016115ee90613019565b60405180910390fd5b600061160283610981565b90508073ffffffffffffffffffffffffffffffffffffffff168473ffffffffffffffffffffffffffffffffffffffff16148061167157508373ffffffffffffffffffffffffffffffffffffffff16611659846105a3565b73ffffffffffffffffffffffffffffffffffffffff16145b80611682575061168181856112a1565b5b91505092915050565b8273ffffffffffffffffffffffffffffffffffffffff166116ab82610981565b73ffffffffffffffffffffffffffffffffffffffff1614611701576040517f08c379a00000000000000000000000000000000000000000000000000000000081526004016116f890612f79565b60405180910390fd5b600073ffffffffffffffffffffffffffffffffffffffff168273ffffffffffffffffffffffffffffffffffffffff161415611771576040517f08c379a000000000000000000000000000000000000000000000000000000000815260040161176890612fb9565b60405180910390fd5b61177c838383611f43565b611787600082611429565b6001600360008573ffffffffffffffffffffffffffffffffffffffff1673ffffffffffffffffffffffffffffffffffffffff16815260200190815260200160002060008282546117d79190613354565b925050819055506001600360008473ffffffffffffffffffffffffffffffffffffffff1673ffffffffffffffffffffffffffffffffffffffff168152602001908152602001600020600082825461182e9190613273565b92505081905550816002600083815260200190815260200160002060006101000a81548173ffffffffffffffffffffffffffffffffffffffff021916908373ffffffffffffffffffffffffffffffffffffffff160217905550808273ffffffffffffffffffffffffffffffffffffffff168473ffffffffffffffffffffffffffffffffffffffff167fddf252ad1be2c89b69c2b068fc378daa952ba7f163c4a11628f55a4df523b3ef60405160405180910390a46118ed838383611f48565b505050565b8173ffffffffffffffffffffffffffffffffffffffff168373ffffffffffffffffffffffffffffffffffffffff161415611961576040517f08c379a000000000000000000000000000000000000000000000000000000000815260040161195890612fd9565b60405180910390fd5b80600560008573ffffffffffffffffffffffffffffffffffffffff1673ffffffffffffffffffffffffffffffffffffffff16815260200190815260200160002060008473ffffffffffffffffffffffffffffffffffffffff1673ffffffffffffffffffffffffffffffffffffffff16815260200190815260200160002060006101000a81548160ff0219169083151502179055508173ffffffffffffffffffffffffffffffffffffffff168373ffffffffffffffffffffffffffffffffffffffff167f17307eab39ab6107e8899845ad3d59bd9653f200f220920489ca2b5937696c3183604051611a529190612ede565b60405180910390a3505050565b60606000821415611aa7576040518060400160405280600181526020017f30000000000000000000000000000000000000000000000000000000000000008152509050611c07565b600082905060005b60008214611ad9578080611ac2906134a1565b915050600a82611ad291906132c9565b9150611aaf565b60008167ffffffffffffffff811115611b1b577f4e487b7100000000000000000000000000000000000000000000000000000000600052604160045260246000fd5b6040519080825280601f01601f191660200182016040528015611b4d5781602001600182028036833780820191505090505b5090505b60008514611c0057600182611b669190613354565b9150600a85611b7591906134ea565b6030611b819190613273565b60f81b818381518110611bbd577f4e487b7100000000000000000000000000000000000000000000000000000000600052603260045260246000fd5b60200101907effffffffffffffffffffffffffffffffffffffffffffffffffffffffffffff1916908160001a905350600a85611bf991906132c9565b9450611b51565b8093505050505b919050565b611ca281604051602401611c209190612ef9565b6040516020818303038152906040527f41304fac000000000000000000000000000000000000000000000000000000007bffffffffffffffffffffffffffffffffffffffffffffffffffffffff19166020820180517bffffffffffffffffffffffffffffffffffffffffffffffffffffffff8381831617835250505050611f1a565b50565b611cb084848461168b565b611cbc84848484611f4d565b611cfb576040517f08c379a0000000000000000000000000000000000000000000000000000000008152600401611cf290612f59565b60405180910390fd5b50505050565b60606000825190506000811415611d2a5760405180602001604052806000815250915050611eba565b60006003600283611d3b9190613273565b611d4591906132c9565b6004611d5191906132fa565b90506000602082611d629190613273565b67ffffffffffffffff811115611da1577f4e487b7100000000000000000000000000000000000000000000000000000000600052604160045260246000fd5b6040519080825280601f01601f191660200182016040528015611dd35781602001600182028036833780820191505090505b5090506000604051806060016040528060408152602001613d1d604091399050600181016020830160005b86811015611e775760038101905062ffffff818a015116603f8160121c168401518060081b905060ff603f83600c1c1686015116810190508060081b905060ff603f8360061c1686015116810190508060081b905060ff603f831686015116810190508060e01b90508084526004840193505050611dfe565b506003860660018114611e915760028114611ea157611eac565b613d3d60f01b6002830352611eac565b603d60f81b60018303525b508484525050819450505050505b919050565b611ec983836120e4565b611ed66000848484611f4d565b611f15576040517f08c379a0000000000000000000000000000000000000000000000000000000008152600401611f0c90612f59565b60405180910390fd5b505050565b60008151905060006a636f6e736f6c652e6c6f679050602083016000808483855afa5050505050565b505050565b505050565b6000611f6e8473ffffffffffffffffffffffffffffffffffffffff166122be565b156120d7578373ffffffffffffffffffffffffffffffffffffffff1663150b7a02611f97611421565b8786866040518563ffffffff1660e01b8152600401611fb99493929190612e2b565b602060405180830381600087803b158015611fd357600080fd5b505af192505050801561200457506040513d601f19601f82011682018060405250810190612001919061273d565b60015b612087573d8060008114612034576040519150601f19603f3d011682016040523d82523d6000602084013e612039565b606091505b5060008151141561207f576040517f08c379a000000000000000000000000000000000000000000000000000000000815260040161207690612f59565b60405180910390fd5b805181602001fd5b63150b7a0260e01b7bffffffffffffffffffffffffffffffffffffffffffffffffffffffff1916817bffffffffffffffffffffffffffffffffffffffffffffffffffffffff1916149150506120dc565b600190505b949350505050565b600073ffffffffffffffffffffffffffffffffffffffff168273ffffffffffffffffffffffffffffffffffffffff161415612154576040517f08c379a000000000000000000000000000000000000000000000000000000000815260040161214b90613099565b60405180910390fd5b61215d816113b5565b1561219d576040517f08c379a000000000000000000000000000000000000000000000000000000000815260040161219490612f99565b60405180910390fd5b6121a960008383611f43565b6001600360008473ffffffffffffffffffffffffffffffffffffffff1673ffffffffffffffffffffffffffffffffffffffff16815260200190815260200160002060008282546121f99190613273565b92505081905550816002600083815260200190815260200160002060006101000a81548173ffffffffffffffffffffffffffffffffffffffff021916908373ffffffffffffffffffffffffffffffffffffffff160217905550808273ffffffffffffffffffffffffffffffffffffffff16600073ffffffffffffffffffffffffffffffffffffffff167fddf252ad1be2c89b69c2b068fc378daa952ba7f163c4a11628f55a4df523b3ef60405160405180910390a46122ba60008383611f48565b5050565b6000808273ffffffffffffffffffffffffffffffffffffffff163b119050919050565b8280546122ed9061343e565b90600052602060002090601f01602090048101928261230f5760008555612356565b82601f1061232857805160ff1916838001178555612356565b82800160010185558215612356579182015b8281111561235557825182559160200191906001019061233a565b5b5090506123639190612367565b5090565b5b80821115612380576000816000905550600101612368565b5090565b6000612397612392846131a2565b61317d565b905080838252602082019050828560208602820111156123b657600080fd5b60005b8581101561240057813567ffffffffffffffff8111156123d857600080fd5b8086016123e5898261252e565b855260208501945060208401935050506001810190506123b9565b5050509392505050565b600061241d612418846131ce565b61317d565b90508281526020810184848401111561243557600080fd5b6124408482856133fc565b509392505050565b600061245b612456846131ff565b61317d565b90508281526020810184848401111561247357600080fd5b61247e8482856133fc565b509392505050565b60008135905061249581613c9b565b92915050565b600082601f8301126124ac57600080fd5b81356124bc848260208601612384565b91505092915050565b6000813590506124d481613cb2565b92915050565b6000813590506124e981613cc9565b92915050565b6000815190506124fe81613cc9565b92915050565b600082601f83011261251557600080fd5b813561252584826020860161240a565b91505092915050565b600082601f83011261253f57600080fd5b813561254f848260208601612448565b91505092915050565b60008135905061256781613ce0565b92915050565b60006020828403121561257f57600080fd5b600061258d84828501612486565b91505092915050565b600080604083850312156125a957600080fd5b60006125b785828601612486565b92505060206125c885828601612486565b9150509250929050565b6000806000606084860312156125e757600080fd5b60006125f586828701612486565b935050602061260686828701612486565b925050604061261786828701612558565b9150509250925092565b6000806000806080858703121561263757600080fd5b600061264587828801612486565b945050602061265687828801612486565b935050604061266787828801612558565b925050606085013567ffffffffffffffff81111561268457600080fd5b61269087828801612504565b91505092959194509250565b600080604083850312156126af57600080fd5b60006126bd85828601612486565b92505060206126ce858286016124c5565b9150509250929050565b600080604083850312156126eb57600080fd5b60006126f985828601612486565b925050602061270a85828601612558565b9150509250929050565b60006020828403121561272657600080fd5b6000612734848285016124da565b91505092915050565b60006020828403121561274f57600080fd5b600061275d848285016124ef565b91505092915050565b60006020828403121561277857600080fd5b600061278684828501612558565b91505092915050565b600080604083850312156127a257600080fd5b60006127b085828601612558565b925050602083013567ffffffffffffffff8111156127cd57600080fd5b6127d98582860161249b565b9150509250929050565b6000806000606084860312156127f857600080fd5b600061280686828701612558565b935050602084013567ffffffffffffffff81111561282357600080fd5b61282f8682870161252e565b925050604061284086828701612558565b9150509250925092565b61285381613388565b82525050565b6128628161339a565b82525050565b600061287382613230565b61287d8185613246565b935061288d81856020860161340b565b612896816135d7565b840191505092915050565b60006128ac8261323b565b6128b68185613257565b93506128c681856020860161340b565b6128cf816135d7565b840191505092915050565b60006128e58261323b565b6128ef8185613268565b93506128ff81856020860161340b565b80840191505092915050565b6000612918603383613268565b9150612923826135e8565b603382019050919050565b600061293b600383613268565b915061294682613637565b600382019050919050565b600061295e603283613257565b915061296982613660565b604082019050919050565b6000612981602583613257565b915061298c826136af565b604082019050919050565b60006129a4601c83613257565b91506129af826136fe565b602082019050919050565b60006129c7602483613257565b91506129d282613727565b604082019050919050565b60006129ea601983613257565b91506129f582613776565b602082019050919050565b6000612a0d601c83613257565b9150612a188261379f565b602082019050919050565b6000612a30602c83613257565b9150612a3b826137c8565b604082019050919050565b6000612a53600683613268565b9150612a5e82613817565b600682019050919050565b6000612a76603883613257565b9150612a8182613840565b604082019050919050565b6000612a99602583613268565b9150612aa48261388f565b602582019050919050565b6000612abc602a83613257565b9150612ac7826138de565b604082019050919050565b6000612adf602983613257565b9150612aea8261392d565b604082019050919050565b6000612b02600383613268565b9150612b0d8261397c565b600382019050919050565b6000612b25606283613268565b9150612b30826139a5565b606282019050919050565b6000612b48602083613257565b9150612b5382613a40565b602082019050919050565b6000612b6b602c83613257565b9150612b7682613a69565b604082019050919050565b6000612b8e600683613268565b9150612b9982613ab8565b600682019050919050565b6000612bb1602c83613257565b9150612bbc82613ae1565b604082019050919050565b6000612bd4602183613257565b9150612bdf82613b30565b604082019050919050565b6000612bf7601d83613268565b9150612c0282613b7f565b601d82019050919050565b6000612c1a601083613268565b9150612c2582613ba8565b601082019050919050565b6000612c3d603183613257565b9150612c4882613bd1565b604082019050919050565b6000612c60600483613268565b9150612c6b82613c20565b600482019050919050565b6000612c83600383613268565b9150612c8e82613c49565b600382019050919050565b6000612ca6600283613268565b9150612cb182613c72565b600282019050919050565b612cc5816133f2565b82525050565b6000612cd782846128da565b915081905092915050565b6000612cee82876128da565b9150612cfa82866128da565b9150612d0582612af5565b9150612d1182856128da565b9150612d1c82612b81565b9150612d2882846128da565b9150612d338261292e565b915081905095945050505050565b6000612d4d82856128da565b9150612d5882612c99565b9150612d6482846128da565b91508190509392505050565b6000612d7b82612bea565b9150612d8782846128da565b915081905092915050565b6000612d9d82612c0d565b9150612da982866128da565b9150612db482612c76565b9150612dbf82612b18565b9150612dca8261290b565b9150612dd682856128da565b9150612de182612c53565b9150612dec82612a8c565b9150612df882846128da565b9150612e0382612a46565b9150819050949350505050565b6000602082019050612e25600083018461284a565b92915050565b6000608082019050612e40600083018761284a565b612e4d602083018661284a565b612e5a6040830185612cbc565b8181036060830152612e6c8184612868565b905095945050505050565b6000606082019050612e8c600083018661284a565b8181036020830152612e9e81856128a1565b9050612ead6040830184612cbc565b949350505050565b6000604082019050612eca600083018561284a565b612ed76020830184612cbc565b9392505050565b6000602082019050612ef36000830184612859565b92915050565b60006020820190508181036000830152612f1381846128a1565b905092915050565b60006060820190508181036000830152612f3581866128a1565b9050612f446020830185612cbc565b612f51604083018461284a565b949350505050565b60006020820190508181036000830152612f7281612951565b9050919050565b60006020820190508181036000830152612f9281612974565b9050919050565b60006020820190508181036000830152612fb281612997565b9050919050565b60006020820190508181036000830152612fd2816129ba565b9050919050565b60006020820190508181036000830152612ff2816129dd565b9050919050565b6000602082019050818103600083015261301281612a00565b9050919050565b6000602082019050818103600083015261303281612a23565b9050919050565b6000602082019050818103600083015261305281612a69565b9050919050565b6000602082019050818103600083015261307281612aaf565b9050919050565b6000602082019050818103600083015261309281612ad2565b9050919050565b600060208201905081810360008301526130b281612b3b565b9050919050565b600060208201905081810360008301526130d281612b5e565b9050919050565b600060208201905081810360008301526130f281612ba4565b9050919050565b6000602082019050818103600083015261311281612bc7565b9050919050565b6000602082019050818103600083015261313281612c30565b9050919050565b600060208201905061314e6000830184612cbc565b92915050565b60006040820190506131696000830185612cbc565b6131766020830184612cbc565b9392505050565b6000613187613198565b90506131938282613470565b919050565b6000604051905090565b600067ffffffffffffffff8211156131bd576131bc6135a8565b5b602082029050602081019050919050565b600067ffffffffffffffff8211156131e9576131e86135a8565b5b6131f2826135d7565b9050602081019050919050565b600067ffffffffffffffff82111561321a576132196135a8565b5b613223826135d7565b9050602081019050919050565b600081519050919050565b600081519050919050565b600082825260208201905092915050565b600082825260208201905092915050565b600081905092915050565b600061327e826133f2565b9150613289836133f2565b9250827fffffffffffffffffffffffffffffffffffffffffffffffffffffffffffffffff038211156132be576132bd61351b565b5b828201905092915050565b60006132d4826133f2565b91506132df836133f2565b9250826132ef576132ee61354a565b5b828204905092915050565b6000613305826133f2565b9150613310836133f2565b9250817fffffffffffffffffffffffffffffffffffffffffffffffffffffffffffffffff04831182151516156133495761334861351b565b5b828202905092915050565b600061335f826133f2565b915061336a836133f2565b92508282101561337d5761337c61351b565b5b828203905092915050565b6000613393826133d2565b9050919050565b60008115159050919050565b60007fffffffff0000000000000000000000000000000000000000000000000000000082169050919050565b600073ffffffffffffffffffffffffffffffffffffffff82169050919050565b6000819050919050565b82818337600083830152505050565b60005b8381101561342957808201518184015260208101905061340e565b83811115613438576000848401525b50505050565b6000600282049050600182168061345657607f821691505b6020821081141561346a57613469613579565b5b50919050565b613479826135d7565b810181811067ffffffffffffffff82111715613498576134976135a8565b5b80604052505050565b60006134ac826133f2565b91507fffffffffffffffffffffffffffffffffffffffffffffffffffffffffffffffff8214156134df576134de61351b565b5b600182019050919050565b60006134f5826133f2565b9150613500836133f2565b9250826135105761350f61354a565b5b828206905092915050565b7f4e487b7100000000000000000000000000000000000000000000000000000000600052601160045260246000fd5b7f4e487b7100000000000000000000000000000000000000000000000000000000600052601260045260246000fd5b7f4e487b7100000000000000000000000000000000000000000000000000000000600052602260045260246000fd5b7f4e487b7100000000000000000000000000000000000000000000000000000000600052604160045260246000fd5b6000601f19601f8301169050919050565b7f2261747472696275746573223a205b7b2274726169745f74797065223a20224d60008201527f6178536c6f74222c202276616c7565223a202200000000000000000000000000602082015250565b7f5c227d0000000000000000000000000000000000000000000000000000000000600082015250565b7f4552433732313a207472616e7366657220746f206e6f6e20455243373231526560008201527f63656976657220696d706c656d656e7465720000000000000000000000000000602082015250565b7f4552433732313a207472616e736665722066726f6d20696e636f72726563742060008201527f6f776e6572000000000000000000000000000000000000000000000000000000602082015250565b7f4552433732313a20746f6b656e20616c7265616479206d696e74656400000000600082015250565b7f4552433732313a207472616e7366657220746f20746865207a65726f2061646460008201527f7265737300000000000000000000000000000000000000000000000000000000602082015250565b7f4552433732313a20617070726f766520746f2063616c6c657200000000000000600082015250565b7f4e6f7420656e6f756768206974656d7320696e20746865206261672e00000000600082015250565b7f4552433732313a206f70657261746f7220717565727920666f72206e6f6e657860008201527f697374656e7420746f6b656e0000000000000000000000000000000000000000602082015250565b7f5d22207d5d7d0000000000000000000000000000000000000000000000000000600082015250565b7f4552433732313a20617070726f76652063616c6c6572206973206e6f74206f7760008201527f6e6572206e6f7220617070726f76656420666f7220616c6c0000000000000000602082015250565b7f7b2274726169745f74797065223a2022436f6e74656e74222c202276616c756560008201527f223a20225b000000000000000000000000000000000000000000000000000000602082015250565b7f4552433732313a2062616c616e636520717565727920666f7220746865207a6560008201527f726f206164647265737300000000000000000000000000000000000000000000602082015250565b7f4552433732313a206f776e657220717565727920666f72206e6f6e657869737460008201527f656e7420746f6b656e0000000000000000000000000000000000000000000000602082015250565b7f7b5c220000000000000000000000000000000000000000000000000000000000600082015250565b7f226465736372697074696f6e223a20224120756e69717565204261677a222c2060008201527f22696d616765223a202268747470733a2f2f696d616765732e656d6f6a69746560208201527f7272612e636f6d2f6d6f7a696c6c612f35313270782f31663339322e706e672260408201527f2c20000000000000000000000000000000000000000000000000000000000000606082015250565b7f4552433732313a206d696e7420746f20746865207a65726f2061646472657373600082015250565b7f4552433732313a20617070726f76656420717565727920666f72206e6f6e657860008201527f697374656e7420746f6b656e0000000000000000000000000000000000000000602082015250565b7f5c223a205c220000000000000000000000000000000000000000000000000000600082015250565b7f54686572652061726520616c7265616479203520646966666572656e7420747960008201527f706573206f66206974656d730000000000000000000000000000000000000000602082015250565b7f4552433732313a20617070726f76616c20746f2063757272656e74206f776e6560008201527f7200000000000000000000000000000000000000000000000000000000000000602082015250565b7f646174613a6170706c69636174696f6e2f6a736f6e3b6261736536342c000000600082015250565b7f7b226e616d65223a20224261677a202300000000000000000000000000000000600082015250565b7f4552433732313a207472616e736665722063616c6c6572206973206e6f74206f60008201527f776e6572206e6f7220617070726f766564000000000000000000000000000000602082015250565b7f22207d2c00000000000000000000000000000000000000000000000000000000600082015250565b7f222c200000000000000000000000000000000000000000000000000000000000600082015250565b7f3a20000000000000000000000000000000000000000000000000000000000000600082015250565b613ca481613388565b8114613caf57600080fd5b50565b613cbb8161339a565b8114613cc657600080fd5b50565b613cd2816133a6565b8114613cdd57600080fd5b50565b613ce9816133f2565b8114613cf457600080fd5b5056fe416e204e465420772f20494420257320686173206265656e206d696e74656420746f2025734142434445464748494a4b4c4d4e4f505152535455565758595a6162636465666768696a6b6c6d6e6f707172737475767778797a303132333435363738392b2fa2646970667358221220446ec94eb3bb6bd1e77288d51e18bea9f97bfed08696976ee487a5109ef8a6b864736f6c63430008040033",
  "linkReferences": {},
  "deployedLinkReferences": {}
}