{
  "_format": "hh-sol-artifact-1",
  "contractName": "BagzNFT",
  "sourceName": "contracts/BagzNFT.sol",
  "abi": [
    {
      "inputs": [],
      "stateMutability": "nonpayable",
      "type": "constructor"
    },
    {
      "anonymous": false,
      "inputs": [
        {
          "indexed": true,
          "internalType": "address",
          "name": "owner",
          "type": "address"
        },
        {
          "indexed": true,
          "internalType": "address",
          "name": "approved",
          "type": "address"
        },
        {
          "indexed": true,
          "internalType": "uint256",
          "name": "tokenId",
          "type": "uint256"
        }
      ],
      "name": "Approval",
      "type": "event"
    },
    {
      "anonymous": false,
      "inputs": [
        {
          "indexed": true,
          "internalType": "address",
          "name": "owner",
          "type": "address"
        },
        {
          "indexed": true,
          "internalType": "address",
          "name": "operator",
          "type": "address"
        },
        {
          "indexed": false,
          "internalType": "bool",
          "name": "approved",
          "type": "bool"
        }
      ],
      "name": "ApprovalForAll",
      "type": "event"
    },
    {
      "anonymous": false,
      "inputs": [
        {
          "indexed": false,
          "internalType": "address",
          "name": "sender",
          "type": "address"
        },
        {
          "indexed": false,
          "internalType": "uint256",
          "name": "tokenId",
          "type": "uint256"
        }
      ],
      "name": "NewBagzNFTMinted",
      "type": "event"
    },
    {
      "anonymous": false,
      "inputs": [
        {
          "indexed": true,
          "internalType": "address",
          "name": "from",
          "type": "address"
        },
        {
          "indexed": true,
          "internalType": "address",
          "name": "to",
          "type": "address"
        },
        {
          "indexed": true,
          "internalType": "uint256",
          "name": "tokenId",
          "type": "uint256"
        }
      ],
      "name": "Transfer",
      "type": "event"
    },
    {
      "anonymous": false,
      "inputs": [
        {
          "indexed": false,
          "internalType": "address",
          "name": "sender",
          "type": "address"
        },
        {
          "indexed": false,
          "internalType": "uint256",
          "name": "tokenId",
          "type": "uint256"
        }
      ],
      "name": "UpdatedTokenUri",
      "type": "event"
    },
    {
      "inputs": [
        {
          "internalType": "uint256",
          "name": "tokenId",
          "type": "uint256"
        },
        {
          "internalType": "string",
          "name": "name",
          "type": "string"
        },
        {
          "internalType": "uint256",
          "name": "quantity",
          "type": "uint256"
        }
      ],
      "name": "addItem",
      "outputs": [],
      "stateMutability": "nonpayable",
      "type": "function"
    },
    {
      "inputs": [
        {
          "internalType": "address",
          "name": "to",
          "type": "address"
        },
        {
          "internalType": "uint256",
          "name": "tokenId",
          "type": "uint256"
        }
      ],
      "name": "approve",
      "outputs": [],
      "stateMutability": "nonpayable",
      "type": "function"
    },
    {
      "inputs": [
        {
          "internalType": "uint256",
          "name": "",
          "type": "uint256"
        }
      ],
      "name": "bags",
      "outputs": [
        {
          "internalType": "uint256",
          "name": "maxSlot",
          "type": "uint256"
        },
        {
          "internalType": "uint256",
          "name": "nbItemTypes",
          "type": "uint256"
        }
      ],
      "stateMutability": "view",
      "type": "function"
    },
    {
      "inputs": [
        {
          "internalType": "address",
          "name": "owner",
          "type": "address"
        }
      ],
      "name": "balanceOf",
      "outputs": [
        {
          "internalType": "uint256",
          "name": "",
          "type": "uint256"
        }
      ],
      "stateMutability": "view",
      "type": "function"
    },
    {
      "inputs": [
        {
          "internalType": "uint256",
          "name": "tokenId",
          "type": "uint256"
        },
        {
          "internalType": "string",
          "name": "name",
          "type": "string"
        },
        {
          "internalType": "uint256",
          "name": "quantity",
          "type": "uint256"
        }
      ],
      "name": "extractItem",
      "outputs": [],
      "stateMutability": "nonpayable",
      "type": "function"
    },
    {
      "inputs": [
        {
          "internalType": "uint256",
          "name": "tokenId",
          "type": "uint256"
        }
      ],
      "name": "getApproved",
      "outputs": [
        {
          "internalType": "address",
          "name": "",
          "type": "address"
        }
      ],
      "stateMutability": "view",
      "type": "function"
    },
    {
      "inputs": [
        {
          "internalType": "uint256",
          "name": "tokenId",
          "type": "uint256"
        }
      ],
      "name": "getNbItemTypesInBag",
      "outputs": [
        {
          "internalType": "uint256",
          "name": "",
          "type": "uint256"
        }
      ],
      "stateMutability": "view",
      "type": "function"
    },
    {
      "inputs": [
        {
          "internalType": "address",
          "name": "owner",
          "type": "address"
        },
        {
          "internalType": "address",
          "name": "operator",
          "type": "address"
        }
      ],
      "name": "isApprovedForAll",
      "outputs": [
        {
          "internalType": "bool",
          "name": "",
          "type": "bool"
        }
      ],
      "stateMutability": "view",
      "type": "function"
    },
    {
      "inputs": [],
      "name": "mint",
      "outputs": [],
      "stateMutability": "nonpayable",
      "type": "function"
    },
    {
      "inputs": [],
      "name": "name",
      "outputs": [
        {
          "internalType": "string",
          "name": "",
          "type": "string"
        }
      ],
      "stateMutability": "view",
      "type": "function"
    },
    {
      "inputs": [
        {
          "internalType": "uint256",
          "name": "tokenId",
          "type": "uint256"
        }
      ],
      "name": "ownerOf",
      "outputs": [
        {
          "internalType": "address",
          "name": "",
          "type": "address"
        }
      ],
      "stateMutability": "view",
      "type": "function"
    },
    {
      "inputs": [
        {
          "internalType": "address",
          "name": "",
          "type": "address"
        },
        {
          "internalType": "uint256",
          "name": "",
          "type": "uint256"
        }
      ],
      "name": "owners",
      "outputs": [
        {
          "internalType": "uint256",
          "name": "",
          "type": "uint256"
        }
      ],
      "stateMutability": "view",
      "type": "function"
    },
    {
      "inputs": [
        {
          "internalType": "address",
          "name": "bItemContract",
          "type": "address"
        }
      ],
      "name": "registerBagzItemContract",
      "outputs": [],
      "stateMutability": "nonpayable",
      "type": "function"
    },
    {
      "inputs": [
        {
          "internalType": "address",
          "name": "from",
          "type": "address"
        },
        {
          "internalType": "address",
          "name": "to",
          "type": "address"
        },
        {
          "internalType": "uint256",
          "name": "tokenId",
          "type": "uint256"
        }
      ],
      "name": "safeTransferFrom",
      "outputs": [],
      "stateMutability": "nonpayable",
      "type": "function"
    },
    {
      "inputs": [
        {
          "internalType": "address",
          "name": "from",
          "type": "address"
        },
        {
          "internalType": "address",
          "name": "to",
          "type": "address"
        },
        {
          "internalType": "uint256",
          "name": "tokenId",
          "type": "uint256"
        },
        {
          "internalType": "bytes",
          "name": "_data",
          "type": "bytes"
        }
      ],
      "name": "safeTransferFrom",
      "outputs": [],
      "stateMutability": "nonpayable",
      "type": "function"
    },
    {
      "inputs": [
        {
          "internalType": "address",
          "name": "operator",
          "type": "address"
        },
        {
          "internalType": "bool",
          "name": "approved",
          "type": "bool"
        }
      ],
      "name": "setApprovalForAll",
      "outputs": [],
      "stateMutability": "nonpayable",
      "type": "function"
    },
    {
      "inputs": [
        {
          "internalType": "uint256",
          "name": "tokenId",
          "type": "uint256"
        },
        {
          "internalType": "string[]",
          "name": "listNames",
          "type": "string[]"
        }
      ],
      "name": "showBag",
      "outputs": [],
      "stateMutability": "view",
      "type": "function"
    },
    {
      "inputs": [
        {
          "internalType": "bytes4",
          "name": "interfaceId",
          "type": "bytes4"
        }
      ],
      "name": "supportsInterface",
      "outputs": [
        {
          "internalType": "bool",
          "name": "",
          "type": "bool"
        }
      ],
      "stateMutability": "view",
      "type": "function"
    },
    {
      "inputs": [],
      "name": "symbol",
      "outputs": [
        {
          "internalType": "string",
          "name": "",
          "type": "string"
        }
      ],
      "stateMutability": "view",
      "type": "function"
    },
    {
      "inputs": [
        {
          "internalType": "uint256",
          "name": "tokenId",
          "type": "uint256"
        }
      ],
      "name": "tokenURI",
      "outputs": [
        {
          "internalType": "string",
          "name": "",
          "type": "string"
        }
      ],
      "stateMutability": "view",
      "type": "function"
    },
    {
      "inputs": [
        {
          "internalType": "address",
          "name": "from",
          "type": "address"
        },
        {
          "internalType": "address",
          "name": "to",
          "type": "address"
        },
        {
          "internalType": "uint256",
          "name": "tokenId",
          "type": "uint256"
        }
      ],
      "name": "transferFrom",
      "outputs": [],
      "stateMutability": "nonpayable",
      "type": "function"
    }
  ],
  "bytecode": "0x608060405260405180608001604052806040518060400160405280600381526020017f47656d000000000000000000000000000000000000000000000000000000000081525081526020016040518060400160405280600481526020017f476561720000000000000000000000000000000000000000000000000000000081525081526020016040518060400160405280600781526020017f5069636b6178650000000000000000000000000000000000000000000000000081525081526020016040518060400160405280600381526020017f417865000000000000000000000000000000000000000000000000000000000081525081525060079060046200010b9291906200068d565b5060405180608001604052806040518060400160405280600481526020017ff09f928e0000000000000000000000000000000000000000000000000000000081525081526020016040518060400160405280600381526020017fe29a99000000000000000000000000000000000000000000000000000000000081525081526020016040518060400160405280600381526020017fe29b8f000000000000000000000000000000000000000000000000000000000081525081526020016040518060400160405280600481526020017ff09faa93000000000000000000000000000000000000000000000000000000008152508152506008906004620002139291906200068d565b50604051806101c001604052806040518060400160405280600481526020017ff09f98820000000000000000000000000000000000000000000000000000000081525081526020016040518060400160405280600481526020017ff09f8d8c0000000000000000000000000000000000000000000000000000000081525081526020016040518060400160405280600481526020017ff09f988e0000000000000000000000000000000000000000000000000000000081525081526020016040518060400160405280600481526020017ff09f988f0000000000000000000000000000000000000000000000000000000081525081526020016040518060400160405280600481526020017ff09f92b00000000000000000000000000000000000000000000000000000000081525081526020016040518060400160405280600481526020017ff09f95b90000000000000000000000000000000000000000000000000000000081525081526020016040518060400160405280600481526020017ff09f8d950000000000000000000000000000000000000000000000000000000081525081526020016040518060400160405280600481526020017ff09f92a90000000000000000000000000000000000000000000000000000000081525081526020016040518060400160405280600481526020017ff09f90b50000000000000000000000000000000000000000000000000000000081525081526020016040518060400160405280600381526020017fe298a3000000000000000000000000000000000000000000000000000000000081525081526020016040518060400160405280600481526020017ff09f92a60000000000000000000000000000000000000000000000000000000081525081526020016040518060400160405280600381526020017fe29aa1000000000000000000000000000000000000000000000000000000000081525081526020016040518060400160405280600481526020017ff09f93880000000000000000000000000000000000000000000000000000000081525081526020016040518060400160405280600481526020017ff09fa78000000000000000000000000000000000000000000000000000000000815250815250600990600e6200056a929190620006f4565b503480156200057857600080fd5b506040518060400160405280600781526020017f4261677a4e4654000000000000000000000000000000000000000000000000008152506040518060400160405280600481526020017f4241475a000000000000000000000000000000000000000000000000000000008152508160009080519060200190620005fd9291906200075b565b508060019080519060200190620006169291906200075b565b50505062000630600c6200067760201b6200134e1760201c565b33600b60006101000a81548173ffffffffffffffffffffffffffffffffffffffff021916908373ffffffffffffffffffffffffffffffffffffffff160217905550620008de565b6001816000016000828254019250508190555050565b828054828255906000526020600020908101928215620006e1579160200282015b82811115620006e0578251829080519060200190620006cf9291906200075b565b5091602001919060010190620006ae565b5b509050620006f09190620007ec565b5090565b82805482825590600052602060002090810192821562000748579160200282015b8281111562000747578251829080519060200190620007369291906200075b565b509160200191906001019062000715565b5b509050620007579190620007ec565b5090565b828054620007699062000879565b90600052602060002090601f0160209004810192826200078d5760008555620007d9565b82601f10620007a857805160ff1916838001178555620007d9565b82800160010185558215620007d9579182015b82811115620007d8578251825591602001919060010190620007bb565b5b509050620007e8919062000814565b5090565b5b8082111562000810576000818162000806919062000833565b50600101620007ed565b5090565b5b808211156200082f57600081600090555060010162000815565b5090565b508054620008419062000879565b6000825580601f1062000855575062000876565b601f01602090049060005260206000209081019062000875919062000814565b5b50565b600060028204905060018216806200089257607f821691505b60208210811415620008a957620008a8620008af565b5b50919050565b7f4e487b7100000000000000000000000000000000000000000000000000000000600052602260045260246000fd5b615df480620008ee6000396000f3fe608060405234801561001057600080fd5b50600436106101375760003560e01c806370a08231116100b8578063b776fc151161007c578063b776fc151461034a578063b88d4fde14610366578063c24676fe14610382578063c87b56dd1461039e578063dda4df4e146103ce578063e985e9c5146103ff57610137565b806370a082311461029457806395d89b41146102c45780639b3e2787146102e2578063a22cb46514610312578063ae46f55e1461032e57610137565b80631249c58b116100ff5780631249c58b1461020657806323b872dd1461021057806342842e0e1461022c5780634e717364146102485780636352211e1461026457610137565b806301ffc9a71461013c57806306fdde031461016c578063081812fc1461018a578063095ea7b3146101ba57806312398479146101d6575b600080fd5b61015660048036038101906101519190614342565b61042f565b6040516101639190614c63565b60405180910390f35b610174610511565b6040516101819190614c7e565b60405180910390f35b6101a4600480360381019061019f9190614394565b6105a3565b6040516101b19190614b95565b60405180910390f35b6101d460048036038101906101cf9190614306565b610628565b005b6101f060048036038101906101eb9190614394565b610740565b6040516101fd9190614ebe565b60405180910390f35b61020e610760565b005b61022a60048036038101906102259190614200565b610863565b005b61024660048036038101906102419190614200565b6108c3565b005b610262600480360381019061025d919061419b565b6108e3565b005b61027e60048036038101906102799190614394565b610981565b60405161028b9190614b95565b60405180910390f35b6102ae60048036038101906102a9919061419b565b610a33565b6040516102bb9190614ebe565b60405180910390f35b6102cc610aeb565b6040516102d99190614c7e565b60405180910390f35b6102fc60048036038101906102f79190614306565b610b7d565b6040516103099190614ebe565b60405180910390f35b61032c600480360381019061032791906142ca565b610bae565b005b610348600480360381019061034391906143bd565b610bc4565b005b610364600480360381019061035f9190614411565b610c95565b005b610380600480360381019061037b919061424f565b610e5e565b005b61039c60048036038101906103979190614411565b610ec0565b005b6103b860048036038101906103b39190614394565b611020565b6040516103c59190614c7e565b60405180910390f35b6103e860048036038101906103e39190614394565b611296565b6040516103f6929190614ed9565b60405180910390f35b610419600480360381019061041491906141c4565b6112ba565b6040516104269190614c63565b60405180910390f35b60007f80ac58cd000000000000000000000000000000000000000000000000000000007bffffffffffffffffffffffffffffffffffffffffffffffffffffffff1916827bffffffffffffffffffffffffffffffffffffffffffffffffffffffff191614806104fa57507f5b5e139f000000000000000000000000000000000000000000000000000000007bffffffffffffffffffffffffffffffffffffffffffffffffffffffff1916827bffffffffffffffffffffffffffffffffffffffffffffffffffffffff1916145b8061050a575061050982611364565b5b9050919050565b606060008054610520906151c3565b80601f016020809104026020016040519081016040528092919081815260200182805461054c906151c3565b80156105995780601f1061056e57610100808354040283529160200191610599565b820191906000526020600020905b81548152906001019060200180831161057c57829003601f168201915b5050505050905090565b60006105ae826113ce565b6105ed576040517f08c379a00000000000000000000000000000000000000000000000000000000081526004016105e490614e3e565b60405180910390fd5b6004600083815260200190815260200160002060009054906101000a900473ffffffffffffffffffffffffffffffffffffffff169050919050565b600061063382610981565b90508073ffffffffffffffffffffffffffffffffffffffff168373ffffffffffffffffffffffffffffffffffffffff1614156106a4576040517f08c379a000000000000000000000000000000000000000000000000000000000815260040161069b90614e7e565b60405180910390fd5b8073ffffffffffffffffffffffffffffffffffffffff166106c361143a565b73ffffffffffffffffffffffffffffffffffffffff1614806106f257506106f1816106ec61143a565b6112ba565b5b610731576040517f08c379a000000000000000000000000000000000000000000000000000000000815260040161072890614dbe565b60405180910390fd5b61073b8383611442565b505050565b6000600d6000838152602001908152602001600020600101549050919050565b600061076c600c6114fb565b90506107783382611509565b6005600d6000838152602001908152602001600020600001819055506107b7604051806060016040528060258152602001615bbb602591398233611527565b6107c1600c61134e565b600e60003373ffffffffffffffffffffffffffffffffffffffff1673ffffffffffffffffffffffffffffffffffffffff1681526020019081526020016000208190806001815401808255809150506001900390600052602060002001600090919091909150557fccbea5c6c3e8a504226479ac7fe09f8e351fcedaedac53e3f57247dee266a72e3382604051610858929190614c3a565b60405180910390a150565b61087461086e61143a565b826115c6565b6108b3576040517f08c379a00000000000000000000000000000000000000000000000000000000081526004016108aa90614e9e565b60405180910390fd5b6108be8383836116a4565b505050565b6108de83838360405180602001604052806000815250610e5e565b505050565b600b60009054906101000a900473ffffffffffffffffffffffffffffffffffffffff1673ffffffffffffffffffffffffffffffffffffffff163373ffffffffffffffffffffffffffffffffffffffff161461093d57600080fd5b80600a60006101000a81548173ffffffffffffffffffffffffffffffffffffffff021916908373ffffffffffffffffffffffffffffffffffffffff16021790555050565b6000806002600084815260200190815260200160002060009054906101000a900473ffffffffffffffffffffffffffffffffffffffff169050600073ffffffffffffffffffffffffffffffffffffffff168173ffffffffffffffffffffffffffffffffffffffff161415610a2a576040517f08c379a0000000000000000000000000000000000000000000000000000000008152600401610a2190614dfe565b60405180910390fd5b80915050919050565b60008073ffffffffffffffffffffffffffffffffffffffff168273ffffffffffffffffffffffffffffffffffffffff161415610aa4576040517f08c379a0000000000000000000000000000000000000000000000000000000008152600401610a9b90614dde565b60405180910390fd5b600360008373ffffffffffffffffffffffffffffffffffffffff1673ffffffffffffffffffffffffffffffffffffffff168152602001908152602001600020549050919050565b606060018054610afa906151c3565b80601f0160208091040260200160405190810160405280929190818152602001828054610b26906151c3565b8015610b735780601f10610b4857610100808354040283529160200191610b73565b820191906000526020600020905b815481529060010190602001808311610b5657829003601f168201915b5050505050905090565b600e6020528160005260406000208181548110610b9957600080fd5b90600052602060002001600091509150505481565b610bc0610bb961143a565b838361190b565b5050565b60005b8151811015610c90576000828281518110610c0b577f4e487b7100000000000000000000000000000000000000000000000000000000600052603260045260246000fd5b60200260200101519050610c7c81610c57600d600088815260200190815260200160002060020184604051610c4091906148f9565b908152602001604051809103902060020154611a78565b604051602001610c68929190614aae565b604051602081830303815290604052611c25565b508080610c8890615226565b915050610bc7565b505050565b6000600d600085815260200190815260200160002090508060020183604051610cbe91906148f9565b908152602001604051809103902060010160009054906101000a900460ff16610de5578060000154816001015410610d2b576040517f08c379a0000000000000000000000000000000000000000000000000000000008152600401610d2290614e5e565b60405180910390fd5b6001816001016000828254610d409190614ff8565b9250508190555060018160020184604051610d5b91906148f9565b908152602001604051809103902060010160006101000a81548160ff021916908315150217905550828160020184604051610d9691906148f9565b90815260200160405180910390206000019080519060200190610dba929190613ebf565b5060008160020184604051610dcf91906148f9565b9081526020016040518091039020600201819055505b818160020184604051610df891906148f9565b90815260200160405180910390206002016000828254610e189190614ff8565b925050819055507fc81f50030cf0bd1be93b5873080725c40323b51c6b3e68b1bafed09641368ca23385604051610e50929190614c3a565b60405180910390a150505050565b610e6f610e6961143a565b836115c6565b610eae576040517f08c379a0000000000000000000000000000000000000000000000000000000008152600401610ea590614e9e565b60405180910390fd5b610eba84848484611cbe565b50505050565b6000600d600085815260200190815260200160002060020183604051610ee691906148f9565b908152602001604051809103902060020154905081811015610f3d576040517f08c379a0000000000000000000000000000000000000000000000000000000008152600401610f3490614d7e565b60405180910390fd5b81600d600086815260200190815260200160002060020184604051610f6291906148f9565b90815260200160405180910390206002016000828254610f8291906150d9565b92505081905550600a60009054906101000a900473ffffffffffffffffffffffffffffffffffffffff1673ffffffffffffffffffffffffffffffffffffffff1663ba7aef433385856040518463ffffffff1660e01b8152600401610fe893929190614bfc565b600060405180830381600087803b15801561100257600080fd5b505af1158015611016573d6000803e3d6000fd5b5050505050505050565b60606000600d60008481526020019081526020016000209050600080600780549050905060006040518060200160405280600081525090505b818310156111fb5760006007848154811061109d577f4e487b7100000000000000000000000000000000000000000000000000000000600052603260045260246000fd5b9060005260206000200180546110b2906151c3565b80601f01602080910402602001604051908101604052809291908181526020018280546110de906151c3565b801561112b5780601f106111005761010080835404028352916020019161112b565b820191906000526020600020905b81548152906001019060200180831161110e57829003601f168201915b505050505090506000856002018260405161114691906148f9565b908152602001604051809103902060020154905060008111156111e8578260008451146111a8576040518060400160405280600281526020017f2c200000000000000000000000000000000000000000000000000000000000008152506111b9565b604051806020016040528060008152505b836111c384611a78565b6040516020016111d69493929190614a4f565b60405160208183030381529060405292505b846111f290615226565b94505050611059565b60006112078588611d1a565b9050600061126761121789611a78565b6112208461267c565b61123f600d60008d815260200190815260200160002060000154611a78565b866040516020016112539493929190614aff565b60405160208183030381529060405261267c565b90508060405160200161127a9190614add565b6040516020818303038152906040529650505050505050919050565b600d6020528060005260406000206000915090508060000154908060010154905082565b6000600560008473ffffffffffffffffffffffffffffffffffffffff1673ffffffffffffffffffffffffffffffffffffffff16815260200190815260200160002060008373ffffffffffffffffffffffffffffffffffffffff1673ffffffffffffffffffffffffffffffffffffffff16815260200190815260200160002060009054906101000a900460ff16905092915050565b6001816000016000828254019250508190555050565b60007f01ffc9a7000000000000000000000000000000000000000000000000000000007bffffffffffffffffffffffffffffffffffffffffffffffffffffffff1916827bffffffffffffffffffffffffffffffffffffffffffffffffffffffff1916149050919050565b60008073ffffffffffffffffffffffffffffffffffffffff166002600084815260200190815260200160002060009054906101000a900473ffffffffffffffffffffffffffffffffffffffff1673ffffffffffffffffffffffffffffffffffffffff1614159050919050565b600033905090565b816004600083815260200190815260200160002060006101000a81548173ffffffffffffffffffffffffffffffffffffffff021916908373ffffffffffffffffffffffffffffffffffffffff160217905550808273ffffffffffffffffffffffffffffffffffffffff166114b583610981565b73ffffffffffffffffffffffffffffffffffffffff167f8c5be1e5ebec7d5bd14f71427d1e84f3dd0314c0f7b2291e5b200ac8c7c3b92560405160405180910390a45050565b600081600001549050919050565b61152382826040518060200160405280600081525061283a565b5050565b6115c183838360405160240161153f93929190614ca0565b6040516020818303038152906040527fe3849f79000000000000000000000000000000000000000000000000000000007bffffffffffffffffffffffffffffffffffffffffffffffffffffffff19166020820180517bffffffffffffffffffffffffffffffffffffffffffffffffffffffff8381831617835250505050612895565b505050565b60006115d1826113ce565b611610576040517f08c379a000000000000000000000000000000000000000000000000000000000815260040161160790614d9e565b60405180910390fd5b600061161b83610981565b90508073ffffffffffffffffffffffffffffffffffffffff168473ffffffffffffffffffffffffffffffffffffffff16148061168a57508373ffffffffffffffffffffffffffffffffffffffff16611672846105a3565b73ffffffffffffffffffffffffffffffffffffffff16145b8061169b575061169a81856112ba565b5b91505092915050565b8273ffffffffffffffffffffffffffffffffffffffff166116c482610981565b73ffffffffffffffffffffffffffffffffffffffff161461171a576040517f08c379a000000000000000000000000000000000000000000000000000000000815260040161171190614cfe565b60405180910390fd5b600073ffffffffffffffffffffffffffffffffffffffff168273ffffffffffffffffffffffffffffffffffffffff16141561178a576040517f08c379a000000000000000000000000000000000000000000000000000000000815260040161178190614d3e565b60405180910390fd5b6117958383836128be565b6117a0600082611442565b6001600360008573ffffffffffffffffffffffffffffffffffffffff1673ffffffffffffffffffffffffffffffffffffffff16815260200190815260200160002060008282546117f091906150d9565b925050819055506001600360008473ffffffffffffffffffffffffffffffffffffffff1673ffffffffffffffffffffffffffffffffffffffff16815260200190815260200160002060008282546118479190614ff8565b92505081905550816002600083815260200190815260200160002060006101000a81548173ffffffffffffffffffffffffffffffffffffffff021916908373ffffffffffffffffffffffffffffffffffffffff160217905550808273ffffffffffffffffffffffffffffffffffffffff168473ffffffffffffffffffffffffffffffffffffffff167fddf252ad1be2c89b69c2b068fc378daa952ba7f163c4a11628f55a4df523b3ef60405160405180910390a46119068383836128c3565b505050565b8173ffffffffffffffffffffffffffffffffffffffff168373ffffffffffffffffffffffffffffffffffffffff16141561197a576040517f08c379a000000000000000000000000000000000000000000000000000000000815260040161197190614d5e565b60405180910390fd5b80600560008573ffffffffffffffffffffffffffffffffffffffff1673ffffffffffffffffffffffffffffffffffffffff16815260200190815260200160002060008473ffffffffffffffffffffffffffffffffffffffff1673ffffffffffffffffffffffffffffffffffffffff16815260200190815260200160002060006101000a81548160ff0219169083151502179055508173ffffffffffffffffffffffffffffffffffffffff168373ffffffffffffffffffffffffffffffffffffffff167f17307eab39ab6107e8899845ad3d59bd9653f200f220920489ca2b5937696c3183604051611a6b9190614c63565b60405180910390a3505050565b60606000821415611ac0576040518060400160405280600181526020017f30000000000000000000000000000000000000000000000000000000000000008152509050611c20565b600082905060005b60008214611af2578080611adb90615226565b915050600a82611aeb919061504e565b9150611ac8565b60008167ffffffffffffffff811115611b34577f4e487b7100000000000000000000000000000000000000000000000000000000600052604160045260246000fd5b6040519080825280601f01601f191660200182016040528015611b665781602001600182028036833780820191505090505b5090505b60008514611c1957600182611b7f91906150d9565b9150600a85611b8e919061526f565b6030611b9a9190614ff8565b60f81b818381518110611bd6577f4e487b7100000000000000000000000000000000000000000000000000000000600052603260045260246000fd5b60200101907effffffffffffffffffffffffffffffffffffffffffffffffffffffffffffff1916908160001a905350600a85611c12919061504e565b9450611b6a565b8093505050505b919050565b611cbb81604051602401611c399190614c7e565b6040516020818303038152906040527f41304fac000000000000000000000000000000000000000000000000000000007bffffffffffffffffffffffffffffffffffffffffffffffffffffffff19166020820180517bffffffffffffffffffffffffffffffffffffffffffffffffffffffff8381831617835250505050612895565b50565b611cc98484846116a4565b611cd5848484846128c8565b611d14576040517f08c379a0000000000000000000000000000000000000000000000000000000008152600401611d0b90614cde565b60405180910390fd5b50505050565b6060611d24613f45565b604051806101a001604052806101648152602001615a576101649139816000600c8110611d7a577f4e487b7100000000000000000000000000000000000000000000000000000000600052603260045260246000fd5b6020020181905250611d8b83611a78565b816001600c8110611dc5577f4e487b7100000000000000000000000000000000000000000000000000000000600052603260045260246000fd5b60200201819052506040518060600160405280602c8152602001615d5b602c9139816002600c8110611e20577f4e487b7100000000000000000000000000000000000000000000000000000000600052603260045260246000fd5b60200201819052506040518060400160405280600481526020017ff09f8e9200000000000000000000000000000000000000000000000000000000815250816003600c8110611e98577f4e487b7100000000000000000000000000000000000000000000000000000000600052603260045260246000fd5b6020020181905250604051806060016040528060388152602001615d8760389139816004600c8110611ef3577f4e487b7100000000000000000000000000000000000000000000000000000000600052603260045260246000fd5b602002018190525060098080549050637fffffff6141a78687611f16919061507f565b611f20919061507f565b611f2a919061526f565b611f34919061526f565b81548110611f6b577f4e487b7100000000000000000000000000000000000000000000000000000000600052603260045260246000fd5b906000526020600020018054611f80906151c3565b80601f0160208091040260200160405190810160405280929190818152602001828054611fac906151c3565b8015611ff95780601f10611fce57610100808354040283529160200191611ff9565b820191906000526020600020905b815481529060010190602001808311611fdc57829003601f168201915b5050505050816005600c8110612038577f4e487b7100000000000000000000000000000000000000000000000000000000600052603260045260246000fd5b6020020181905250604051806060016040528060398152602001615c1760399139816006600c8110612093577f4e487b7100000000000000000000000000000000000000000000000000000000600052603260045260246000fd5b602002018190525060098080549050637fffffff6141a76001876120b79190614ff8565b876120c2919061507f565b6120cc919061507f565b6120d6919061526f565b6120e0919061526f565b81548110612117577f4e487b7100000000000000000000000000000000000000000000000000000000600052603260045260246000fd5b90600052602060002001805461212c906151c3565b80601f0160208091040260200160405190810160405280929190818152602001828054612158906151c3565b80156121a55780601f1061217a576101008083540402835291602001916121a5565b820191906000526020600020905b81548152906001019060200180831161218857829003601f168201915b5050505050816007600c81106121e4577f4e487b7100000000000000000000000000000000000000000000000000000000600052603260045260246000fd5b60200201819052506040518060c0016040528060948152602001615cc760949139816008600c811061223f577f4e487b7100000000000000000000000000000000000000000000000000000000600052603260045260246000fd5b602002018190525061225084612a5f565b816009600c811061228a577f4e487b7100000000000000000000000000000000000000000000000000000000600052603260045260246000fd5b602002018190525061229b846133e1565b81600a600c81106122d5577f4e487b7100000000000000000000000000000000000000000000000000000000600052603260045260246000fd5b60200201819052506040518060400160405280600681526020017f3c2f7376673e000000000000000000000000000000000000000000000000000081525081600b600c811061234d577f4e487b7100000000000000000000000000000000000000000000000000000000600052603260045260246000fd5b6020020181905250806000600c811061238f577f4e487b7100000000000000000000000000000000000000000000000000000000600052603260045260246000fd5b6020020151816001600c81106123ce577f4e487b7100000000000000000000000000000000000000000000000000000000600052603260045260246000fd5b6020020151826002600c811061240d577f4e487b7100000000000000000000000000000000000000000000000000000000600052603260045260246000fd5b6020020151836003600c811061244c577f4e487b7100000000000000000000000000000000000000000000000000000000600052603260045260246000fd5b6020020151846004600c811061248b577f4e487b7100000000000000000000000000000000000000000000000000000000600052603260045260246000fd5b6020020151856005600c81106124ca577f4e487b7100000000000000000000000000000000000000000000000000000000600052603260045260246000fd5b6020020151866006600c8110612509577f4e487b7100000000000000000000000000000000000000000000000000000000600052603260045260246000fd5b6020020151876007600c8110612548577f4e487b7100000000000000000000000000000000000000000000000000000000600052603260045260246000fd5b6020020151886008600c8110612587577f4e487b7100000000000000000000000000000000000000000000000000000000600052603260045260246000fd5b6020020151896009600c81106125c6577f4e487b7100000000000000000000000000000000000000000000000000000000600052603260045260246000fd5b60200201518a600a600c8110612605577f4e487b7100000000000000000000000000000000000000000000000000000000600052603260045260246000fd5b60200201518b600b600c8110612644577f4e487b7100000000000000000000000000000000000000000000000000000000600052603260045260246000fd5b60200201516040516020016126649c9b9a999897969594939291906149a9565b60405160208183030381529060405291505092915050565b606060008251905060008114156126a55760405180602001604052806000815250915050612835565b600060036002836126b69190614ff8565b6126c0919061504e565b60046126cc919061507f565b905060006020826126dd9190614ff8565b67ffffffffffffffff81111561271c577f4e487b7100000000000000000000000000000000000000000000000000000000600052604160045260246000fd5b6040519080825280601f01601f19166020018201604052801561274e5781602001600182028036833780820191505090505b5090506000604051806060016040528060408152602001615c87604091399050600181016020830160005b868110156127f25760038101905062ffffff818a015116603f8160121c168401518060081b905060ff603f83600c1c1686015116810190508060081b905060ff603f8360061c1686015116810190508060081b905060ff603f831686015116810190508060e01b90508084526004840193505050612779565b50600386066001811461280c576002811461281c57612827565b613d3d60f01b6002830352612827565b603d60f81b60018303525b508484525050819450505050505b919050565b6128448383613cc2565b61285160008484846128c8565b612890576040517f08c379a000000000000000000000000000000000000000000000000000000000815260040161288790614cde565b60405180910390fd5b505050565b60008151905060006a636f6e736f6c652e6c6f679050602083016000808483855afa5050505050565b505050565b505050565b60006128e98473ffffffffffffffffffffffffffffffffffffffff16613e9c565b15612a52578373ffffffffffffffffffffffffffffffffffffffff1663150b7a0261291261143a565b8786866040518563ffffffff1660e01b81526004016129349493929190614bb0565b602060405180830381600087803b15801561294e57600080fd5b505af192505050801561297f57506040513d601f19601f8201168201806040525081019061297c919061436b565b60015b612a02573d80600081146129af576040519150601f19603f3d011682016040523d82523d6000602084013e6129b4565b606091505b506000815114156129fa576040517f08c379a00000000000000000000000000000000000000000000000000000000081526004016129f190614cde565b60405180910390fd5b805181602001fd5b63150b7a0260e01b7bffffffffffffffffffffffffffffffffffffffffffffffffffffffff1916817bffffffffffffffffffffffffffffffffffffffffffffffffffffffff191614915050612a57565b600190505b949350505050565b6060612a69613f6d565b604051806060016040528060378152602001615be060379139816000600b8110612abc577f4e487b7100000000000000000000000000000000000000000000000000000000600052603260045260246000fd5b602002018190525060405180602001604052806000815250816001600b8110612b0e577f4e487b7100000000000000000000000000000000000000000000000000000000600052603260045260246000fd5b60200201819052506040518060400160405280601481526020017f3c2f746578743e3c7465787420783d273935273e000000000000000000000000815250816002600b8110612b86577f4e487b7100000000000000000000000000000000000000000000000000000000600052603260045260246000fd5b602002018190525060405180602001604052806000815250816003600b8110612bd8577f4e487b7100000000000000000000000000000000000000000000000000000000600052603260045260246000fd5b60200201819052506040518060400160405280601581526020017f3c2f746578743e3c7465787420783d27313530273e0000000000000000000000815250816004600b8110612c50577f4e487b7100000000000000000000000000000000000000000000000000000000600052603260045260246000fd5b602002018190525060405180602001604052806000815250816005600b8110612ca2577f4e487b7100000000000000000000000000000000000000000000000000000000600052603260045260246000fd5b60200201819052506040518060400160405280601581526020017f3c2f746578743e3c7465787420783d27323035273e0000000000000000000000815250816006600b8110612d1a577f4e487b7100000000000000000000000000000000000000000000000000000000600052603260045260246000fd5b602002018190525060405180602001604052806000815250816007600b8110612d6c577f4e487b7100000000000000000000000000000000000000000000000000000000600052603260045260246000fd5b60200201819052506040518060400160405280601581526020017f3c2f746578743e3c7465787420783d27323630273e0000000000000000000000815250816008600b8110612de4577f4e487b7100000000000000000000000000000000000000000000000000000000600052603260045260246000fd5b602002018190525060405180602001604052806000815250816009600b8110612e36577f4e487b7100000000000000000000000000000000000000000000000000000000600052603260045260246000fd5b60200201819052506040518060400160405280600b81526020017f3c2f746578743e3c2f673e00000000000000000000000000000000000000000081525081600a600b8110612eae577f4e487b7100000000000000000000000000000000000000000000000000000000600052603260045260246000fd5b602002018190525060006001905060005b6007805490508110156130f957600060078281548110612f08577f4e487b7100000000000000000000000000000000000000000000000000000000600052603260045260246000fd5b906000526020600020018054612f1d906151c3565b80601f0160208091040260200160405190810160405280929190818152602001828054612f49906151c3565b8015612f965780601f10612f6b57610100808354040283529160200191612f96565b820191906000526020600020905b815481529060010190602001808311612f7957829003601f168201915b5050505050905060008660020182604051612fb191906148f9565b90815260200160405180910390206002015411156130e75760088281548110613003577f4e487b7100000000000000000000000000000000000000000000000000000000600052603260045260246000fd5b906000526020600020018054613018906151c3565b80601f0160208091040260200160405190810160405280929190818152602001828054613044906151c3565b80156130915780601f1061306657610100808354040283529160200191613091565b820191906000526020600020905b81548152906001019060200180831161307457829003601f168201915b50505050508484600b81106130cf577f4e487b7100000000000000000000000000000000000000000000000000000000600052603260045260246000fd5b60200201819052506002836130e49190614ff8565b92505b50806130f290615226565b9050612ebf565b50816000600b8110613134577f4e487b7100000000000000000000000000000000000000000000000000000000600052603260045260246000fd5b6020020151826001600b8110613173577f4e487b7100000000000000000000000000000000000000000000000000000000600052603260045260246000fd5b6020020151836002600b81106131b2577f4e487b7100000000000000000000000000000000000000000000000000000000600052603260045260246000fd5b6020020151846003600b81106131f1577f4e487b7100000000000000000000000000000000000000000000000000000000600052603260045260246000fd5b6020020151856004600b8110613230577f4e487b7100000000000000000000000000000000000000000000000000000000600052603260045260246000fd5b6020020151866005600b811061326f577f4e487b7100000000000000000000000000000000000000000000000000000000600052603260045260246000fd5b6020020151876006600b81106132ae577f4e487b7100000000000000000000000000000000000000000000000000000000600052603260045260246000fd5b6020020151886007600b81106132ed577f4e487b7100000000000000000000000000000000000000000000000000000000600052603260045260246000fd5b6020020151896008600b811061332c577f4e487b7100000000000000000000000000000000000000000000000000000000600052603260045260246000fd5b60200201518a6009600b811061336b577f4e487b7100000000000000000000000000000000000000000000000000000000600052603260045260246000fd5b60200201518b600a600b81106133aa577f4e487b7100000000000000000000000000000000000000000000000000000000600052603260045260246000fd5b60200201516040516020016133c99b9a99989796959493929190614910565b60405160208183030381529060405292505050919050565b60606133eb613f6d565b604051806060016040528060378152602001615c5060379139816000600b811061343e577f4e487b7100000000000000000000000000000000000000000000000000000000600052603260045260246000fd5b602002018190525060405180602001604052806000815250816001600b8110613490577f4e487b7100000000000000000000000000000000000000000000000000000000600052603260045260246000fd5b60200201819052506040518060400160405280601581526020017f3c2f746578743e3c7465787420783d27313137273e0000000000000000000000815250816002600b8110613508577f4e487b7100000000000000000000000000000000000000000000000000000000600052603260045260246000fd5b602002018190525060405180602001604052806000815250816003600b811061355a577f4e487b7100000000000000000000000000000000000000000000000000000000600052603260045260246000fd5b60200201819052506040518060400160405280601581526020017f3c2f746578743e3c7465787420783d27313732273e0000000000000000000000815250816004600b81106135d2577f4e487b7100000000000000000000000000000000000000000000000000000000600052603260045260246000fd5b602002018190525060405180602001604052806000815250816005600b8110613624577f4e487b7100000000000000000000000000000000000000000000000000000000600052603260045260246000fd5b60200201819052506040518060400160405280601581526020017f3c2f746578743e3c7465787420783d27323237273e0000000000000000000000815250816006600b811061369c577f4e487b7100000000000000000000000000000000000000000000000000000000600052603260045260246000fd5b602002018190525060405180602001604052806000815250816007600b81106136ee577f4e487b7100000000000000000000000000000000000000000000000000000000600052603260045260246000fd5b60200201819052506040518060400160405280601581526020017f3c2f746578743e3c7465787420783d27323832273e0000000000000000000000815250816008600b8110613766577f4e487b7100000000000000000000000000000000000000000000000000000000600052603260045260246000fd5b602002018190525060405180602001604052806000815250816009600b81106137b8577f4e487b7100000000000000000000000000000000000000000000000000000000600052603260045260246000fd5b60200201819052506040518060400160405280600b81526020017f3c2f746578743e3c2f673e00000000000000000000000000000000000000000081525081600a600b8110613830577f4e487b7100000000000000000000000000000000000000000000000000000000600052603260045260246000fd5b602002018190525060006001905060005b6007805490508110156139da5760006007828154811061388a577f4e487b7100000000000000000000000000000000000000000000000000000000600052603260045260246000fd5b90600052602060002001805461389f906151c3565b80601f01602080910402602001604051908101604052809291908181526020018280546138cb906151c3565b80156139185780601f106138ed57610100808354040283529160200191613918565b820191906000526020600020905b8154815290600101906020018083116138fb57829003601f168201915b505050505090506000866002018260405161393391906148f9565b90815260200160405180910390206002015411156139c857613977866002018260405161396091906148f9565b908152602001604051809103902060020154611a78565b8484600b81106139b0577f4e487b7100000000000000000000000000000000000000000000000000000000600052603260045260246000fd5b60200201819052506002836139c59190614ff8565b92505b50806139d390615226565b9050613841565b50816000600b8110613a15577f4e487b7100000000000000000000000000000000000000000000000000000000600052603260045260246000fd5b6020020151826001600b8110613a54577f4e487b7100000000000000000000000000000000000000000000000000000000600052603260045260246000fd5b6020020151836002600b8110613a93577f4e487b7100000000000000000000000000000000000000000000000000000000600052603260045260246000fd5b6020020151846003600b8110613ad2577f4e487b7100000000000000000000000000000000000000000000000000000000600052603260045260246000fd5b6020020151856004600b8110613b11577f4e487b7100000000000000000000000000000000000000000000000000000000600052603260045260246000fd5b6020020151866005600b8110613b50577f4e487b7100000000000000000000000000000000000000000000000000000000600052603260045260246000fd5b6020020151876006600b8110613b8f577f4e487b7100000000000000000000000000000000000000000000000000000000600052603260045260246000fd5b6020020151886007600b8110613bce577f4e487b7100000000000000000000000000000000000000000000000000000000600052603260045260246000fd5b6020020151896008600b8110613c0d577f4e487b7100000000000000000000000000000000000000000000000000000000600052603260045260246000fd5b60200201518a6009600b8110613c4c577f4e487b7100000000000000000000000000000000000000000000000000000000600052603260045260246000fd5b60200201518b600a600b8110613c8b577f4e487b7100000000000000000000000000000000000000000000000000000000600052603260045260246000fd5b6020020151604051602001613caa9b9a99989796959493929190614910565b60405160208183030381529060405292505050919050565b600073ffffffffffffffffffffffffffffffffffffffff168273ffffffffffffffffffffffffffffffffffffffff161415613d32576040517f08c379a0000000000000000000000000000000000000000000000000000000008152600401613d2990614e1e565b60405180910390fd5b613d3b816113ce565b15613d7b576040517f08c379a0000000000000000000000000000000000000000000000000000000008152600401613d7290614d1e565b60405180910390fd5b613d87600083836128be565b6001600360008473ffffffffffffffffffffffffffffffffffffffff1673ffffffffffffffffffffffffffffffffffffffff1681526020019081526020016000206000828254613dd79190614ff8565b92505081905550816002600083815260200190815260200160002060006101000a81548173ffffffffffffffffffffffffffffffffffffffff021916908373ffffffffffffffffffffffffffffffffffffffff160217905550808273ffffffffffffffffffffffffffffffffffffffff16600073ffffffffffffffffffffffffffffffffffffffff167fddf252ad1be2c89b69c2b068fc378daa952ba7f163c4a11628f55a4df523b3ef60405160405180910390a4613e98600083836128c3565b5050565b6000808273ffffffffffffffffffffffffffffffffffffffff163b119050919050565b828054613ecb906151c3565b90600052602060002090601f016020900481019282613eed5760008555613f34565b82601f10613f0657805160ff1916838001178555613f34565b82800160010185558215613f34579182015b82811115613f33578251825591602001919060010190613f18565b5b509050613f419190613f95565b5090565b604051806101800160405280600c905b6060815260200190600190039081613f555790505090565b604051806101600160405280600b905b6060815260200190600190039081613f7d5790505090565b5b80821115613fae576000816000905550600101613f96565b5090565b6000613fc5613fc084614f27565b614f02565b90508083825260208201905082856020860282011115613fe457600080fd5b60005b8581101561402e57813567ffffffffffffffff81111561400657600080fd5b808601614013898261415c565b85526020850194506020840193505050600181019050613fe7565b5050509392505050565b600061404b61404684614f53565b614f02565b90508281526020810184848401111561406357600080fd5b61406e848285615181565b509392505050565b600061408961408484614f84565b614f02565b9050828152602081018484840111156140a157600080fd5b6140ac848285615181565b509392505050565b6000813590506140c3816159fa565b92915050565b600082601f8301126140da57600080fd5b81356140ea848260208601613fb2565b91505092915050565b60008135905061410281615a11565b92915050565b60008135905061411781615a28565b92915050565b60008151905061412c81615a28565b92915050565b600082601f83011261414357600080fd5b8135614153848260208601614038565b91505092915050565b600082601f83011261416d57600080fd5b813561417d848260208601614076565b91505092915050565b60008135905061419581615a3f565b92915050565b6000602082840312156141ad57600080fd5b60006141bb848285016140b4565b91505092915050565b600080604083850312156141d757600080fd5b60006141e5858286016140b4565b92505060206141f6858286016140b4565b9150509250929050565b60008060006060848603121561421557600080fd5b6000614223868287016140b4565b9350506020614234868287016140b4565b925050604061424586828701614186565b9150509250925092565b6000806000806080858703121561426557600080fd5b6000614273878288016140b4565b9450506020614284878288016140b4565b935050604061429587828801614186565b925050606085013567ffffffffffffffff8111156142b257600080fd5b6142be87828801614132565b91505092959194509250565b600080604083850312156142dd57600080fd5b60006142eb858286016140b4565b92505060206142fc858286016140f3565b9150509250929050565b6000806040838503121561431957600080fd5b6000614327858286016140b4565b925050602061433885828601614186565b9150509250929050565b60006020828403121561435457600080fd5b600061436284828501614108565b91505092915050565b60006020828403121561437d57600080fd5b600061438b8482850161411d565b91505092915050565b6000602082840312156143a657600080fd5b60006143b484828501614186565b91505092915050565b600080604083850312156143d057600080fd5b60006143de85828601614186565b925050602083013567ffffffffffffffff8111156143fb57600080fd5b614407858286016140c9565b9150509250929050565b60008060006060848603121561442657600080fd5b600061443486828701614186565b935050602084013567ffffffffffffffff81111561445157600080fd5b61445d8682870161415c565b925050604061446e86828701614186565b9150509250925092565b6144818161510d565b82525050565b6144908161511f565b82525050565b60006144a182614fb5565b6144ab8185614fcb565b93506144bb818560208601615190565b6144c48161535c565b840191505092915050565b60006144da82614fc0565b6144e48185614fdc565b93506144f4818560208601615190565b6144fd8161535c565b840191505092915050565b600061451382614fc0565b61451d8185614fed565b935061452d818560208601615190565b80840191505092915050565b6000614546603383614fed565b91506145518261536d565b603382019050919050565b6000614569600383614fed565b9150614574826153bc565b600382019050919050565b600061458c603283614fdc565b9150614597826153e5565b604082019050919050565b60006145af602583614fdc565b91506145ba82615434565b604082019050919050565b60006145d2601c83614fdc565b91506145dd82615483565b602082019050919050565b60006145f5602483614fdc565b9150614600826154ac565b604082019050919050565b6000614618601983614fdc565b9150614623826154fb565b602082019050919050565b600061463b601c83614fdc565b915061464682615524565b602082019050919050565b600061465e602c83614fdc565b91506146698261554d565b604082019050919050565b6000614681600683614fed565b915061468c8261559c565b600682019050919050565b60006146a4603883614fdc565b91506146af826155c5565b604082019050919050565b60006146c7602583614fed565b91506146d282615614565b602582019050919050565b60006146ea602a83614fdc565b91506146f582615663565b604082019050919050565b600061470d602983614fdc565b9150614718826156b2565b604082019050919050565b6000614730600383614fed565b915061473b82615701565b600382019050919050565b6000614753602083614fdc565b915061475e8261572a565b602082019050919050565b6000614776602c83614fdc565b915061478182615753565b604082019050919050565b6000614799600683614fed565b91506147a4826157a2565b600682019050919050565b60006147bc602c83614fdc565b91506147c7826157cb565b604082019050919050565b60006147df604483614fed565b91506147ea8261581a565b604482019050919050565b6000614802602183614fdc565b915061480d8261588f565b604082019050919050565b6000614825601d83614fed565b9150614830826158de565b601d82019050919050565b6000614848601083614fed565b915061485382615907565b601082019050919050565b600061486b603183614fdc565b915061487682615930565b604082019050919050565b600061488e600483614fed565b91506148998261597f565b600482019050919050565b60006148b1600383614fed565b91506148bc826159a8565b600382019050919050565b60006148d4600283614fed565b91506148df826159d1565b600282019050919050565b6148f381615177565b82525050565b60006149058284614508565b915081905092915050565b600061491c828e614508565b9150614928828d614508565b9150614934828c614508565b9150614940828b614508565b915061494c828a614508565b91506149588289614508565b91506149648288614508565b91506149708287614508565b915061497c8286614508565b91506149888285614508565b91506149948284614508565b91508190509c9b505050505050505050505050565b60006149b5828f614508565b91506149c1828e614508565b91506149cd828d614508565b91506149d9828c614508565b91506149e5828b614508565b91506149f1828a614508565b91506149fd8289614508565b9150614a098288614508565b9150614a158287614508565b9150614a218286614508565b9150614a2d8285614508565b9150614a398284614508565b91508190509d9c50505050505050505050505050565b6000614a5b8287614508565b9150614a678286614508565b9150614a7282614723565b9150614a7e8285614508565b9150614a898261478c565b9150614a958284614508565b9150614aa08261455c565b915081905095945050505050565b6000614aba8285614508565b9150614ac5826148c7565b9150614ad18284614508565b91508190509392505050565b6000614ae882614818565b9150614af48284614508565b915081905092915050565b6000614b0a8261483b565b9150614b168287614508565b9150614b21826148a4565b9150614b2c826147d2565b9150614b388286614508565b9150614b43826148a4565b9150614b4e82614539565b9150614b5a8285614508565b9150614b6582614881565b9150614b70826146ba565b9150614b7c8284614508565b9150614b8782614674565b915081905095945050505050565b6000602082019050614baa6000830184614478565b92915050565b6000608082019050614bc56000830187614478565b614bd26020830186614478565b614bdf60408301856148ea565b8181036060830152614bf18184614496565b905095945050505050565b6000606082019050614c116000830186614478565b8181036020830152614c2381856144cf565b9050614c3260408301846148ea565b949350505050565b6000604082019050614c4f6000830185614478565b614c5c60208301846148ea565b9392505050565b6000602082019050614c786000830184614487565b92915050565b60006020820190508181036000830152614c9881846144cf565b905092915050565b60006060820190508181036000830152614cba81866144cf565b9050614cc960208301856148ea565b614cd66040830184614478565b949350505050565b60006020820190508181036000830152614cf78161457f565b9050919050565b60006020820190508181036000830152614d17816145a2565b9050919050565b60006020820190508181036000830152614d37816145c5565b9050919050565b60006020820190508181036000830152614d57816145e8565b9050919050565b60006020820190508181036000830152614d778161460b565b9050919050565b60006020820190508181036000830152614d978161462e565b9050919050565b60006020820190508181036000830152614db781614651565b9050919050565b60006020820190508181036000830152614dd781614697565b9050919050565b60006020820190508181036000830152614df7816146dd565b9050919050565b60006020820190508181036000830152614e1781614700565b9050919050565b60006020820190508181036000830152614e3781614746565b9050919050565b60006020820190508181036000830152614e5781614769565b9050919050565b60006020820190508181036000830152614e77816147af565b9050919050565b60006020820190508181036000830152614e97816147f5565b9050919050565b60006020820190508181036000830152614eb78161485e565b9050919050565b6000602082019050614ed360008301846148ea565b92915050565b6000604082019050614eee60008301856148ea565b614efb60208301846148ea565b9392505050565b6000614f0c614f1d565b9050614f1882826151f5565b919050565b6000604051905090565b600067ffffffffffffffff821115614f4257614f4161532d565b5b602082029050602081019050919050565b600067ffffffffffffffff821115614f6e57614f6d61532d565b5b614f778261535c565b9050602081019050919050565b600067ffffffffffffffff821115614f9f57614f9e61532d565b5b614fa88261535c565b9050602081019050919050565b600081519050919050565b600081519050919050565b600082825260208201905092915050565b600082825260208201905092915050565b600081905092915050565b600061500382615177565b915061500e83615177565b9250827fffffffffffffffffffffffffffffffffffffffffffffffffffffffffffffffff03821115615043576150426152a0565b5b828201905092915050565b600061505982615177565b915061506483615177565b925082615074576150736152cf565b5b828204905092915050565b600061508a82615177565b915061509583615177565b9250817fffffffffffffffffffffffffffffffffffffffffffffffffffffffffffffffff04831182151516156150ce576150cd6152a0565b5b828202905092915050565b60006150e482615177565b91506150ef83615177565b925082821015615102576151016152a0565b5b828203905092915050565b600061511882615157565b9050919050565b60008115159050919050565b60007fffffffff0000000000000000000000000000000000000000000000000000000082169050919050565b600073ffffffffffffffffffffffffffffffffffffffff82169050919050565b6000819050919050565b82818337600083830152505050565b60005b838110156151ae578082015181840152602081019050615193565b838111156151bd576000848401525b50505050565b600060028204905060018216806151db57607f821691505b602082108114156151ef576151ee6152fe565b5b50919050565b6151fe8261535c565b810181811067ffffffffffffffff8211171561521d5761521c61532d565b5b80604052505050565b600061523182615177565b91507fffffffffffffffffffffffffffffffffffffffffffffffffffffffffffffffff821415615264576152636152a0565b5b600182019050919050565b600061527a82615177565b915061528583615177565b925082615295576152946152cf565b5b828206905092915050565b7f4e487b7100000000000000000000000000000000000000000000000000000000600052601160045260246000fd5b7f4e487b7100000000000000000000000000000000000000000000000000000000600052601260045260246000fd5b7f4e487b7100000000000000000000000000000000000000000000000000000000600052602260045260246000fd5b7f4e487b7100000000000000000000000000000000000000000000000000000000600052604160045260246000fd5b6000601f19601f8301169050919050565b7f2261747472696275746573223a205b7b2274726169745f74797065223a20224d60008201527f6178536c6f74222c202276616c7565223a202200000000000000000000000000602082015250565b7f5c227d0000000000000000000000000000000000000000000000000000000000600082015250565b7f4552433732313a207472616e7366657220746f206e6f6e20455243373231526560008201527f63656976657220696d706c656d656e7465720000000000000000000000000000602082015250565b7f4552433732313a207472616e736665722066726f6d20696e636f72726563742060008201527f6f776e6572000000000000000000000000000000000000000000000000000000602082015250565b7f4552433732313a20746f6b656e20616c7265616479206d696e74656400000000600082015250565b7f4552433732313a207472616e7366657220746f20746865207a65726f2061646460008201527f7265737300000000000000000000000000000000000000000000000000000000602082015250565b7f4552433732313a20617070726f766520746f2063616c6c657200000000000000600082015250565b7f4e6f7420656e6f756768206974656d7320696e20746865206261672e00000000600082015250565b7f4552433732313a206f70657261746f7220717565727920666f72206e6f6e657860008201527f697374656e7420746f6b656e0000000000000000000000000000000000000000602082015250565b7f5d22207d5d7d0000000000000000000000000000000000000000000000000000600082015250565b7f4552433732313a20617070726f76652063616c6c6572206973206e6f74206f7760008201527f6e6572206e6f7220617070726f76656420666f7220616c6c0000000000000000602082015250565b7f7b2274726169745f74797065223a2022436f6e74656e74222c202276616c756560008201527f223a20225b000000000000000000000000000000000000000000000000000000602082015250565b7f4552433732313a2062616c616e636520717565727920666f7220746865207a6560008201527f726f206164647265737300000000000000000000000000000000000000000000602082015250565b7f4552433732313a206f776e657220717565727920666f72206e6f6e657869737460008201527f656e7420746f6b656e0000000000000000000000000000000000000000000000602082015250565b7f7b5c220000000000000000000000000000000000000000000000000000000000600082015250565b7f4552433732313a206d696e7420746f20746865207a65726f2061646472657373600082015250565b7f4552433732313a20617070726f76656420717565727920666f72206e6f6e657860008201527f697374656e7420746f6b656e0000000000000000000000000000000000000000602082015250565b7f5c223a205c220000000000000000000000000000000000000000000000000000600082015250565b7f54686572652061726520616c7265616479203520646966666572656e7420747960008201527f706573206f66206974656d730000000000000000000000000000000000000000602082015250565b7f226465736372697074696f6e223a20224120756e69717565204261677a222c2060008201527f22696d616765223a2022646174613a696d6167652f7376672b786d6c3b62617360208201527f6536342c00000000000000000000000000000000000000000000000000000000604082015250565b7f4552433732313a20617070726f76616c20746f2063757272656e74206f776e6560008201527f7200000000000000000000000000000000000000000000000000000000000000602082015250565b7f646174613a6170706c69636174696f6e2f6a736f6e3b6261736536342c000000600082015250565b7f7b226e616d65223a20224261677a202300000000000000000000000000000000600082015250565b7f4552433732313a207472616e736665722063616c6c6572206973206e6f74206f60008201527f776e6572206e6f7220617070726f766564000000000000000000000000000000602082015250565b7f22207d2c00000000000000000000000000000000000000000000000000000000600082015250565b7f222c200000000000000000000000000000000000000000000000000000000000600082015250565b7f3a20000000000000000000000000000000000000000000000000000000000000600082015250565b615a038161510d565b8114615a0e57600080fd5b50565b615a1a8161511f565b8114615a2557600080fd5b50565b615a318161512b565b8114615a3c57600080fd5b50565b615a4881615177565b8114615a5357600080fd5b5056fe3c73766720786d6c6e733d27687474703a2f2f7777772e77332e6f72672f323030302f737667272076696577426f783d273020302033303020333030273e3c7374796c653e2e7120746578747b666f6e742d73697a653a313270783b66696c6c3a236666663b666f6e742d7765696768743a3730303b746578742d616e63686f723a656e643b7061696e742d6f726465723a7374726f6b653b7374726f6b652d77696474683a333b7374726f6b653a233030307d2e6920746578747b666f6e742d73697a653a333770783b746578742d616e63686f723a6d6964646c657d3c2f7374796c653e3c706174682066696c6c3d27236666662720643d274d302030683330307633303048307a272f3e3c7465787420783d273135302720793d2733302720666f6e742d73697a653d2732302720746578742d616e63686f723d276d6964646c6527207374796c653d27666f6e742d7765696768743a373030273e4261677a2023416e204e465420772f20494420257320686173206265656e206d696e74656420746f2025733c6720636c6173733d276927207472616e73666f726d3d277472616e736c61746528302032383129273e3c7465787420783d273430273e3c2f746578743e3c7465787420783d273131302720793d273134302720726f746174653d272d31352720666f6e742d73697a653d273330273e3c6720636c6173733d277127207472616e73666f726d3d277472616e736c61746528302032383829273e3c7465787420783d273632273e4142434445464748494a4b4c4d4e4f505152535455565758595a6162636465666768696a6b6c6d6e6f707172737475767778797a303132333435363738392b2f3c2f746578743e3c70617468207374796c653d2766696c6c3a62656967653b7374726f6b652d77696474683a363b7374726f6b653a233765336331302720643d274d3132203234306835357635354831327a6d353520306835357635354836377a6d35352030683535763535682d35357a6d35352030683535763535682d35357a6d35352030683535763535682d35357a272f3e3c2f746578743e3c7465787420783d2733382720793d273139302720666f6e742d73697a653d27313630273e3c2f746578743e3c7465787420783d273134372720793d273131302720726f746174653d2732302720666f6e742d73697a653d273330273ea2646970667358221220686cfb41bcbe9f26a0b5e87a1a550885e47a53d6eb66d8087db064cf59b16ee064736f6c63430008040033",
  "linkReferences": {},
  "deployedLinkReferences": {}
}